{
  "address": "0xCf7Ed3AccA5a467e9e704C703E8D87F634fB0Fc9",
  "abi": [
    {
      "inputs": [
        {
          "internalType": "contract IVotes",
          "name": "_token",
          "type": "address"
        },
        {
          "internalType": "contract TimelockController",
          "name": "_timelock",
          "type": "address"
        },
        {
          "internalType": "uint256",
          "name": "_quorumPercentage",
          "type": "uint256"
        },
        {
          "internalType": "uint256",
          "name": "_votingPeriod",
          "type": "uint256"
        },
        {
          "internalType": "uint256",
          "name": "_votingDelay",
          "type": "uint256"
        }
      ],
      "stateMutability": "nonpayable",
      "type": "constructor"
    },
    {
      "inputs": [],
      "name": "CheckpointUnorderedInsertion",
      "type": "error"
    },
    {
      "inputs": [],
      "name": "FailedCall",
      "type": "error"
    },
    {
      "inputs": [
        {
          "internalType": "address",
          "name": "voter",
          "type": "address"
        }
      ],
      "name": "GovernorAlreadyCastVote",
      "type": "error"
    },
    {
      "inputs": [
        {
          "internalType": "uint256",
          "name": "proposalId",
          "type": "uint256"
        }
      ],
      "name": "GovernorAlreadyQueuedProposal",
      "type": "error"
    },
    {
      "inputs": [],
      "name": "GovernorDisabledDeposit",
      "type": "error"
    },
    {
      "inputs": [
        {
          "internalType": "address",
          "name": "proposer",
          "type": "address"
        },
        {
          "internalType": "uint256",
          "name": "votes",
          "type": "uint256"
        },
        {
          "internalType": "uint256",
          "name": "threshold",
          "type": "uint256"
        }
      ],
      "name": "GovernorInsufficientProposerVotes",
      "type": "error"
    },
    {
      "inputs": [
        {
          "internalType": "uint256",
          "name": "targets",
          "type": "uint256"
        },
        {
          "internalType": "uint256",
          "name": "calldatas",
          "type": "uint256"
        },
        {
          "internalType": "uint256",
          "name": "values",
          "type": "uint256"
        }
      ],
      "name": "GovernorInvalidProposalLength",
      "type": "error"
    },
    {
      "inputs": [
        {
          "internalType": "uint256",
          "name": "quorumNumerator",
          "type": "uint256"
        },
        {
          "internalType": "uint256",
          "name": "quorumDenominator",
          "type": "uint256"
        }
      ],
      "name": "GovernorInvalidQuorumFraction",
      "type": "error"
    },
    {
      "inputs": [
        {
          "internalType": "address",
          "name": "voter",
          "type": "address"
        }
      ],
      "name": "GovernorInvalidSignature",
      "type": "error"
    },
    {
      "inputs": [],
      "name": "GovernorInvalidVoteParams",
      "type": "error"
    },
    {
      "inputs": [],
      "name": "GovernorInvalidVoteType",
      "type": "error"
    },
    {
      "inputs": [
        {
          "internalType": "uint256",
          "name": "votingPeriod",
          "type": "uint256"
        }
      ],
      "name": "GovernorInvalidVotingPeriod",
      "type": "error"
    },
    {
      "inputs": [
        {
          "internalType": "uint256",
          "name": "proposalId",
          "type": "uint256"
        }
      ],
      "name": "GovernorNonexistentProposal",
      "type": "error"
    },
    {
      "inputs": [
        {
          "internalType": "uint256",
          "name": "proposalId",
          "type": "uint256"
        }
      ],
      "name": "GovernorNotQueuedProposal",
      "type": "error"
    },
    {
      "inputs": [
        {
          "internalType": "address",
          "name": "account",
          "type": "address"
        }
      ],
      "name": "GovernorOnlyExecutor",
      "type": "error"
    },
    {
      "inputs": [
        {
          "internalType": "address",
          "name": "account",
          "type": "address"
        }
      ],
      "name": "GovernorOnlyProposer",
      "type": "error"
    },
    {
      "inputs": [],
      "name": "GovernorQueueNotImplemented",
      "type": "error"
    },
    {
      "inputs": [
        {
          "internalType": "address",
          "name": "proposer",
          "type": "address"
        }
      ],
      "name": "GovernorRestrictedProposer",
      "type": "error"
    },
    {
      "inputs": [
        {
          "internalType": "uint256",
          "name": "proposalId",
          "type": "uint256"
        },
        {
          "internalType": "enum IGovernor.ProposalState",
          "name": "current",
          "type": "uint8"
        },
        {
          "internalType": "bytes32",
          "name": "expectedStates",
          "type": "bytes32"
        }
      ],
      "name": "GovernorUnexpectedProposalState",
      "type": "error"
    },
    {
      "inputs": [
        {
          "internalType": "address",
          "name": "account",
          "type": "address"
        },
        {
          "internalType": "uint256",
          "name": "currentNonce",
          "type": "uint256"
        }
      ],
      "name": "InvalidAccountNonce",
      "type": "error"
    },
    {
      "inputs": [],
      "name": "InvalidShortString",
      "type": "error"
    },
    {
      "inputs": [
        {
          "internalType": "uint8",
          "name": "bits",
          "type": "uint8"
        },
        {
          "internalType": "uint256",
          "name": "value",
          "type": "uint256"
        }
      ],
      "name": "SafeCastOverflowedUintDowncast",
      "type": "error"
    },
    {
      "inputs": [
        {
          "internalType": "string",
          "name": "str",
          "type": "string"
        }
      ],
      "name": "StringTooLong",
      "type": "error"
    },
    {
      "anonymous": false,
      "inputs": [],
      "name": "EIP712DomainChanged",
      "type": "event"
    },
    {
      "anonymous": false,
      "inputs": [
        {
          "indexed": false,
          "internalType": "uint256",
          "name": "proposalId",
          "type": "uint256"
        }
      ],
      "name": "ProposalCanceled",
      "type": "event"
    },
    {
      "anonymous": false,
      "inputs": [
        {
          "indexed": false,
          "internalType": "uint256",
          "name": "proposalId",
          "type": "uint256"
        },
        {
          "indexed": false,
          "internalType": "address",
          "name": "proposer",
          "type": "address"
        },
        {
          "indexed": false,
          "internalType": "address[]",
          "name": "targets",
          "type": "address[]"
        },
        {
          "indexed": false,
          "internalType": "uint256[]",
          "name": "values",
          "type": "uint256[]"
        },
        {
          "indexed": false,
          "internalType": "string[]",
          "name": "signatures",
          "type": "string[]"
        },
        {
          "indexed": false,
          "internalType": "bytes[]",
          "name": "calldatas",
          "type": "bytes[]"
        },
        {
          "indexed": false,
          "internalType": "uint256",
          "name": "voteStart",
          "type": "uint256"
        },
        {
          "indexed": false,
          "internalType": "uint256",
          "name": "voteEnd",
          "type": "uint256"
        },
        {
          "indexed": false,
          "internalType": "string",
          "name": "description",
          "type": "string"
        }
      ],
      "name": "ProposalCreated",
      "type": "event"
    },
    {
      "anonymous": false,
      "inputs": [
        {
          "indexed": false,
          "internalType": "uint256",
          "name": "proposalId",
          "type": "uint256"
        }
      ],
      "name": "ProposalExecuted",
      "type": "event"
    },
    {
      "anonymous": false,
      "inputs": [
        {
          "indexed": false,
          "internalType": "uint256",
          "name": "proposalId",
          "type": "uint256"
        },
        {
          "indexed": false,
          "internalType": "uint256",
          "name": "etaSeconds",
          "type": "uint256"
        }
      ],
      "name": "ProposalQueued",
      "type": "event"
    },
    {
      "anonymous": false,
      "inputs": [
        {
          "indexed": false,
          "internalType": "uint256",
          "name": "oldProposalThreshold",
          "type": "uint256"
        },
        {
          "indexed": false,
          "internalType": "uint256",
          "name": "newProposalThreshold",
          "type": "uint256"
        }
      ],
      "name": "ProposalThresholdSet",
      "type": "event"
    },
    {
      "anonymous": false,
      "inputs": [
        {
          "indexed": false,
          "internalType": "uint256",
          "name": "oldQuorumNumerator",
          "type": "uint256"
        },
        {
          "indexed": false,
          "internalType": "uint256",
          "name": "newQuorumNumerator",
          "type": "uint256"
        }
      ],
      "name": "QuorumNumeratorUpdated",
      "type": "event"
    },
    {
      "anonymous": false,
      "inputs": [
        {
          "indexed": false,
          "internalType": "address",
          "name": "oldTimelock",
          "type": "address"
        },
        {
          "indexed": false,
          "internalType": "address",
          "name": "newTimelock",
          "type": "address"
        }
      ],
      "name": "TimelockChange",
      "type": "event"
    },
    {
      "anonymous": false,
      "inputs": [
        {
          "indexed": true,
          "internalType": "address",
          "name": "voter",
          "type": "address"
        },
        {
          "indexed": false,
          "internalType": "uint256",
          "name": "proposalId",
          "type": "uint256"
        },
        {
          "indexed": false,
          "internalType": "uint8",
          "name": "support",
          "type": "uint8"
        },
        {
          "indexed": false,
          "internalType": "uint256",
          "name": "weight",
          "type": "uint256"
        },
        {
          "indexed": false,
          "internalType": "string",
          "name": "reason",
          "type": "string"
        }
      ],
      "name": "VoteCast",
      "type": "event"
    },
    {
      "anonymous": false,
      "inputs": [
        {
          "indexed": true,
          "internalType": "address",
          "name": "voter",
          "type": "address"
        },
        {
          "indexed": false,
          "internalType": "uint256",
          "name": "proposalId",
          "type": "uint256"
        },
        {
          "indexed": false,
          "internalType": "uint8",
          "name": "support",
          "type": "uint8"
        },
        {
          "indexed": false,
          "internalType": "uint256",
          "name": "weight",
          "type": "uint256"
        },
        {
          "indexed": false,
          "internalType": "string",
          "name": "reason",
          "type": "string"
        },
        {
          "indexed": false,
          "internalType": "bytes",
          "name": "params",
          "type": "bytes"
        }
      ],
      "name": "VoteCastWithParams",
      "type": "event"
    },
    {
      "anonymous": false,
      "inputs": [
        {
          "indexed": false,
          "internalType": "uint256",
          "name": "oldVotingDelay",
          "type": "uint256"
        },
        {
          "indexed": false,
          "internalType": "uint256",
          "name": "newVotingDelay",
          "type": "uint256"
        }
      ],
      "name": "VotingDelaySet",
      "type": "event"
    },
    {
      "anonymous": false,
      "inputs": [
        {
          "indexed": false,
          "internalType": "uint256",
          "name": "oldVotingPeriod",
          "type": "uint256"
        },
        {
          "indexed": false,
          "internalType": "uint256",
          "name": "newVotingPeriod",
          "type": "uint256"
        }
      ],
      "name": "VotingPeriodSet",
      "type": "event"
    },
    {
      "inputs": [],
      "name": "BALLOT_TYPEHASH",
      "outputs": [
        {
          "internalType": "bytes32",
          "name": "",
          "type": "bytes32"
        }
      ],
      "stateMutability": "view",
      "type": "function"
    },
    {
      "inputs": [],
      "name": "CLOCK_MODE",
      "outputs": [
        {
          "internalType": "string",
          "name": "",
          "type": "string"
        }
      ],
      "stateMutability": "view",
      "type": "function"
    },
    {
      "inputs": [],
      "name": "COUNTING_MODE",
      "outputs": [
        {
          "internalType": "string",
          "name": "",
          "type": "string"
        }
      ],
      "stateMutability": "pure",
      "type": "function"
    },
    {
      "inputs": [],
      "name": "EXTENDED_BALLOT_TYPEHASH",
      "outputs": [
        {
          "internalType": "bytes32",
          "name": "",
          "type": "bytes32"
        }
      ],
      "stateMutability": "view",
      "type": "function"
    },
    {
      "inputs": [
        {
          "internalType": "address[]",
          "name": "targets",
          "type": "address[]"
        },
        {
          "internalType": "uint256[]",
          "name": "values",
          "type": "uint256[]"
        },
        {
          "internalType": "bytes[]",
          "name": "calldatas",
          "type": "bytes[]"
        },
        {
          "internalType": "bytes32",
          "name": "descriptionHash",
          "type": "bytes32"
        }
      ],
      "name": "cancel",
      "outputs": [
        {
          "internalType": "uint256",
          "name": "",
          "type": "uint256"
        }
      ],
      "stateMutability": "nonpayable",
      "type": "function"
    },
    {
      "inputs": [
        {
          "internalType": "uint256",
          "name": "proposalId",
          "type": "uint256"
        },
        {
          "internalType": "uint8",
          "name": "support",
          "type": "uint8"
        }
      ],
      "name": "castVote",
      "outputs": [
        {
          "internalType": "uint256",
          "name": "",
          "type": "uint256"
        }
      ],
      "stateMutability": "nonpayable",
      "type": "function"
    },
    {
      "inputs": [
        {
          "internalType": "uint256",
          "name": "proposalId",
          "type": "uint256"
        },
        {
          "internalType": "uint8",
          "name": "support",
          "type": "uint8"
        },
        {
          "internalType": "address",
          "name": "voter",
          "type": "address"
        },
        {
          "internalType": "bytes",
          "name": "signature",
          "type": "bytes"
        }
      ],
      "name": "castVoteBySig",
      "outputs": [
        {
          "internalType": "uint256",
          "name": "",
          "type": "uint256"
        }
      ],
      "stateMutability": "nonpayable",
      "type": "function"
    },
    {
      "inputs": [
        {
          "internalType": "uint256",
          "name": "proposalId",
          "type": "uint256"
        },
        {
          "internalType": "uint8",
          "name": "support",
          "type": "uint8"
        },
        {
          "internalType": "string",
          "name": "reason",
          "type": "string"
        }
      ],
      "name": "castVoteWithReason",
      "outputs": [
        {
          "internalType": "uint256",
          "name": "",
          "type": "uint256"
        }
      ],
      "stateMutability": "nonpayable",
      "type": "function"
    },
    {
      "inputs": [
        {
          "internalType": "uint256",
          "name": "proposalId",
          "type": "uint256"
        },
        {
          "internalType": "uint8",
          "name": "support",
          "type": "uint8"
        },
        {
          "internalType": "string",
          "name": "reason",
          "type": "string"
        },
        {
          "internalType": "bytes",
          "name": "params",
          "type": "bytes"
        }
      ],
      "name": "castVoteWithReasonAndParams",
      "outputs": [
        {
          "internalType": "uint256",
          "name": "",
          "type": "uint256"
        }
      ],
      "stateMutability": "nonpayable",
      "type": "function"
    },
    {
      "inputs": [
        {
          "internalType": "uint256",
          "name": "proposalId",
          "type": "uint256"
        },
        {
          "internalType": "uint8",
          "name": "support",
          "type": "uint8"
        },
        {
          "internalType": "address",
          "name": "voter",
          "type": "address"
        },
        {
          "internalType": "string",
          "name": "reason",
          "type": "string"
        },
        {
          "internalType": "bytes",
          "name": "params",
          "type": "bytes"
        },
        {
          "internalType": "bytes",
          "name": "signature",
          "type": "bytes"
        }
      ],
      "name": "castVoteWithReasonAndParamsBySig",
      "outputs": [
        {
          "internalType": "uint256",
          "name": "",
          "type": "uint256"
        }
      ],
      "stateMutability": "nonpayable",
      "type": "function"
    },
    {
      "inputs": [],
      "name": "clock",
      "outputs": [
        {
          "internalType": "uint48",
          "name": "",
          "type": "uint48"
        }
      ],
      "stateMutability": "view",
      "type": "function"
    },
    {
      "inputs": [],
      "name": "eip712Domain",
      "outputs": [
        {
          "internalType": "bytes1",
          "name": "fields",
          "type": "bytes1"
        },
        {
          "internalType": "string",
          "name": "name",
          "type": "string"
        },
        {
          "internalType": "string",
          "name": "version",
          "type": "string"
        },
        {
          "internalType": "uint256",
          "name": "chainId",
          "type": "uint256"
        },
        {
          "internalType": "address",
          "name": "verifyingContract",
          "type": "address"
        },
        {
          "internalType": "bytes32",
          "name": "salt",
          "type": "bytes32"
        },
        {
          "internalType": "uint256[]",
          "name": "extensions",
          "type": "uint256[]"
        }
      ],
      "stateMutability": "view",
      "type": "function"
    },
    {
      "inputs": [
        {
          "internalType": "address[]",
          "name": "targets",
          "type": "address[]"
        },
        {
          "internalType": "uint256[]",
          "name": "values",
          "type": "uint256[]"
        },
        {
          "internalType": "bytes[]",
          "name": "calldatas",
          "type": "bytes[]"
        },
        {
          "internalType": "bytes32",
          "name": "descriptionHash",
          "type": "bytes32"
        }
      ],
      "name": "execute",
      "outputs": [
        {
          "internalType": "uint256",
          "name": "",
          "type": "uint256"
        }
      ],
      "stateMutability": "payable",
      "type": "function"
    },
    {
      "inputs": [
        {
          "internalType": "address",
          "name": "account",
          "type": "address"
        },
        {
          "internalType": "uint256",
          "name": "timepoint",
          "type": "uint256"
        }
      ],
      "name": "getVotes",
      "outputs": [
        {
          "internalType": "uint256",
          "name": "",
          "type": "uint256"
        }
      ],
      "stateMutability": "view",
      "type": "function"
    },
    {
      "inputs": [
        {
          "internalType": "address",
          "name": "account",
          "type": "address"
        },
        {
          "internalType": "uint256",
          "name": "timepoint",
          "type": "uint256"
        },
        {
          "internalType": "bytes",
          "name": "params",
          "type": "bytes"
        }
      ],
      "name": "getVotesWithParams",
      "outputs": [
        {
          "internalType": "uint256",
          "name": "",
          "type": "uint256"
        }
      ],
      "stateMutability": "view",
      "type": "function"
    },
    {
      "inputs": [
        {
          "internalType": "uint256",
          "name": "proposalId",
          "type": "uint256"
        },
        {
          "internalType": "address",
          "name": "account",
          "type": "address"
        }
      ],
      "name": "hasVoted",
      "outputs": [
        {
          "internalType": "bool",
          "name": "",
          "type": "bool"
        }
      ],
      "stateMutability": "view",
      "type": "function"
    },
    {
      "inputs": [
        {
          "internalType": "address[]",
          "name": "targets",
          "type": "address[]"
        },
        {
          "internalType": "uint256[]",
          "name": "values",
          "type": "uint256[]"
        },
        {
          "internalType": "bytes[]",
          "name": "calldatas",
          "type": "bytes[]"
        },
        {
          "internalType": "bytes32",
          "name": "descriptionHash",
          "type": "bytes32"
        }
      ],
      "name": "hashProposal",
      "outputs": [
        {
          "internalType": "uint256",
          "name": "",
          "type": "uint256"
        }
      ],
      "stateMutability": "pure",
      "type": "function"
    },
    {
      "inputs": [],
      "name": "name",
      "outputs": [
        {
          "internalType": "string",
          "name": "",
          "type": "string"
        }
      ],
      "stateMutability": "view",
      "type": "function"
    },
    {
      "inputs": [
        {
          "internalType": "address",
          "name": "owner",
          "type": "address"
        }
      ],
      "name": "nonces",
      "outputs": [
        {
          "internalType": "uint256",
          "name": "",
          "type": "uint256"
        }
      ],
      "stateMutability": "view",
      "type": "function"
    },
    {
      "inputs": [
        {
          "internalType": "address",
          "name": "",
          "type": "address"
        },
        {
          "internalType": "address",
          "name": "",
          "type": "address"
        },
        {
          "internalType": "uint256[]",
          "name": "",
          "type": "uint256[]"
        },
        {
          "internalType": "uint256[]",
          "name": "",
          "type": "uint256[]"
        },
        {
          "internalType": "bytes",
          "name": "",
          "type": "bytes"
        }
      ],
      "name": "onERC1155BatchReceived",
      "outputs": [
        {
          "internalType": "bytes4",
          "name": "",
          "type": "bytes4"
        }
      ],
      "stateMutability": "nonpayable",
      "type": "function"
    },
    {
      "inputs": [
        {
          "internalType": "address",
          "name": "",
          "type": "address"
        },
        {
          "internalType": "address",
          "name": "",
          "type": "address"
        },
        {
          "internalType": "uint256",
          "name": "",
          "type": "uint256"
        },
        {
          "internalType": "uint256",
          "name": "",
          "type": "uint256"
        },
        {
          "internalType": "bytes",
          "name": "",
          "type": "bytes"
        }
      ],
      "name": "onERC1155Received",
      "outputs": [
        {
          "internalType": "bytes4",
          "name": "",
          "type": "bytes4"
        }
      ],
      "stateMutability": "nonpayable",
      "type": "function"
    },
    {
      "inputs": [
        {
          "internalType": "address",
          "name": "",
          "type": "address"
        },
        {
          "internalType": "address",
          "name": "",
          "type": "address"
        },
        {
          "internalType": "uint256",
          "name": "",
          "type": "uint256"
        },
        {
          "internalType": "bytes",
          "name": "",
          "type": "bytes"
        }
      ],
      "name": "onERC721Received",
      "outputs": [
        {
          "internalType": "bytes4",
          "name": "",
          "type": "bytes4"
        }
      ],
      "stateMutability": "nonpayable",
      "type": "function"
    },
    {
      "inputs": [
        {
          "internalType": "uint256",
          "name": "proposalId",
          "type": "uint256"
        }
      ],
      "name": "proposalDeadline",
      "outputs": [
        {
          "internalType": "uint256",
          "name": "",
          "type": "uint256"
        }
      ],
      "stateMutability": "view",
      "type": "function"
    },
    {
      "inputs": [
        {
          "internalType": "uint256",
          "name": "proposalId",
          "type": "uint256"
        }
      ],
      "name": "proposalEta",
      "outputs": [
        {
          "internalType": "uint256",
          "name": "",
          "type": "uint256"
        }
      ],
      "stateMutability": "view",
      "type": "function"
    },
    {
      "inputs": [
        {
          "internalType": "uint256",
          "name": "proposalId",
          "type": "uint256"
        }
      ],
      "name": "proposalNeedsQueuing",
      "outputs": [
        {
          "internalType": "bool",
          "name": "",
          "type": "bool"
        }
      ],
      "stateMutability": "view",
      "type": "function"
    },
    {
      "inputs": [
        {
          "internalType": "uint256",
          "name": "proposalId",
          "type": "uint256"
        }
      ],
      "name": "proposalProposer",
      "outputs": [
        {
          "internalType": "address",
          "name": "",
          "type": "address"
        }
      ],
      "stateMutability": "view",
      "type": "function"
    },
    {
      "inputs": [
        {
          "internalType": "uint256",
          "name": "proposalId",
          "type": "uint256"
        }
      ],
      "name": "proposalSnapshot",
      "outputs": [
        {
          "internalType": "uint256",
          "name": "",
          "type": "uint256"
        }
      ],
      "stateMutability": "view",
      "type": "function"
    },
    {
      "inputs": [],
      "name": "proposalThreshold",
      "outputs": [
        {
          "internalType": "uint256",
          "name": "",
          "type": "uint256"
        }
      ],
      "stateMutability": "view",
      "type": "function"
    },
    {
      "inputs": [
        {
          "internalType": "uint256",
          "name": "proposalId",
          "type": "uint256"
        }
      ],
      "name": "proposalVotes",
      "outputs": [
        {
          "internalType": "uint256",
          "name": "againstVotes",
          "type": "uint256"
        },
        {
          "internalType": "uint256",
          "name": "forVotes",
          "type": "uint256"
        },
        {
          "internalType": "uint256",
          "name": "abstainVotes",
          "type": "uint256"
        }
      ],
      "stateMutability": "view",
      "type": "function"
    },
    {
      "inputs": [
        {
          "internalType": "address[]",
          "name": "targets",
          "type": "address[]"
        },
        {
          "internalType": "uint256[]",
          "name": "values",
          "type": "uint256[]"
        },
        {
          "internalType": "bytes[]",
          "name": "calldatas",
          "type": "bytes[]"
        },
        {
          "internalType": "string",
          "name": "description",
          "type": "string"
        }
      ],
      "name": "propose",
      "outputs": [
        {
          "internalType": "uint256",
          "name": "",
          "type": "uint256"
        }
      ],
      "stateMutability": "nonpayable",
      "type": "function"
    },
    {
      "inputs": [
        {
          "internalType": "address[]",
          "name": "targets",
          "type": "address[]"
        },
        {
          "internalType": "uint256[]",
          "name": "values",
          "type": "uint256[]"
        },
        {
          "internalType": "bytes[]",
          "name": "calldatas",
          "type": "bytes[]"
        },
        {
          "internalType": "bytes32",
          "name": "descriptionHash",
          "type": "bytes32"
        }
      ],
      "name": "queue",
      "outputs": [
        {
          "internalType": "uint256",
          "name": "",
          "type": "uint256"
        }
      ],
      "stateMutability": "nonpayable",
      "type": "function"
    },
    {
      "inputs": [
        {
          "internalType": "uint256",
          "name": "blockNumber",
          "type": "uint256"
        }
      ],
      "name": "quorum",
      "outputs": [
        {
          "internalType": "uint256",
          "name": "",
          "type": "uint256"
        }
      ],
      "stateMutability": "view",
      "type": "function"
    },
    {
      "inputs": [],
      "name": "quorumDenominator",
      "outputs": [
        {
          "internalType": "uint256",
          "name": "",
          "type": "uint256"
        }
      ],
      "stateMutability": "view",
      "type": "function"
    },
    {
      "inputs": [
        {
          "internalType": "uint256",
          "name": "timepoint",
          "type": "uint256"
        }
      ],
      "name": "quorumNumerator",
      "outputs": [
        {
          "internalType": "uint256",
          "name": "",
          "type": "uint256"
        }
      ],
      "stateMutability": "view",
      "type": "function"
    },
    {
      "inputs": [],
      "name": "quorumNumerator",
      "outputs": [
        {
          "internalType": "uint256",
          "name": "",
          "type": "uint256"
        }
      ],
      "stateMutability": "view",
      "type": "function"
    },
    {
      "inputs": [
        {
          "internalType": "address",
          "name": "target",
          "type": "address"
        },
        {
          "internalType": "uint256",
          "name": "value",
          "type": "uint256"
        },
        {
          "internalType": "bytes",
          "name": "data",
          "type": "bytes"
        }
      ],
      "name": "relay",
      "outputs": [],
      "stateMutability": "payable",
      "type": "function"
    },
    {
      "inputs": [
        {
          "internalType": "uint256",
          "name": "newProposalThreshold",
          "type": "uint256"
        }
      ],
      "name": "setProposalThreshold",
      "outputs": [],
      "stateMutability": "nonpayable",
      "type": "function"
    },
    {
      "inputs": [
        {
          "internalType": "uint48",
          "name": "newVotingDelay",
          "type": "uint48"
        }
      ],
      "name": "setVotingDelay",
      "outputs": [],
      "stateMutability": "nonpayable",
      "type": "function"
    },
    {
      "inputs": [
        {
          "internalType": "uint32",
          "name": "newVotingPeriod",
          "type": "uint32"
        }
      ],
      "name": "setVotingPeriod",
      "outputs": [],
      "stateMutability": "nonpayable",
      "type": "function"
    },
    {
      "inputs": [
        {
          "internalType": "uint256",
          "name": "proposalId",
          "type": "uint256"
        }
      ],
      "name": "state",
      "outputs": [
        {
          "internalType": "enum IGovernor.ProposalState",
          "name": "",
          "type": "uint8"
        }
      ],
      "stateMutability": "view",
      "type": "function"
    },
    {
      "inputs": [
        {
          "internalType": "bytes4",
          "name": "interfaceId",
          "type": "bytes4"
        }
      ],
      "name": "supportsInterface",
      "outputs": [
        {
          "internalType": "bool",
          "name": "",
          "type": "bool"
        }
      ],
      "stateMutability": "view",
      "type": "function"
    },
    {
      "inputs": [],
      "name": "timelock",
      "outputs": [
        {
          "internalType": "address",
          "name": "",
          "type": "address"
        }
      ],
      "stateMutability": "view",
      "type": "function"
    },
    {
      "inputs": [],
      "name": "token",
      "outputs": [
        {
          "internalType": "contract IERC5805",
          "name": "",
          "type": "address"
        }
      ],
      "stateMutability": "view",
      "type": "function"
    },
    {
      "inputs": [
        {
          "internalType": "uint256",
          "name": "newQuorumNumerator",
          "type": "uint256"
        }
      ],
      "name": "updateQuorumNumerator",
      "outputs": [],
      "stateMutability": "nonpayable",
      "type": "function"
    },
    {
      "inputs": [
        {
          "internalType": "contract TimelockController",
          "name": "newTimelock",
          "type": "address"
        }
      ],
      "name": "updateTimelock",
      "outputs": [],
      "stateMutability": "nonpayable",
      "type": "function"
    },
    {
      "inputs": [],
      "name": "version",
      "outputs": [
        {
          "internalType": "string",
          "name": "",
          "type": "string"
        }
      ],
      "stateMutability": "view",
      "type": "function"
    },
    {
      "inputs": [],
      "name": "votingDelay",
      "outputs": [
        {
          "internalType": "uint256",
          "name": "",
          "type": "uint256"
        }
      ],
      "stateMutability": "view",
      "type": "function"
    },
    {
      "inputs": [],
      "name": "votingPeriod",
      "outputs": [
        {
          "internalType": "uint256",
          "name": "",
          "type": "uint256"
        }
      ],
      "stateMutability": "view",
      "type": "function"
    },
    {
      "stateMutability": "payable",
      "type": "receive"
    }
  ],
  "transactionHash": "0x6e6515359a628cee9a83d617903d403ee23fe118b96db51125fb34552e55d50c",
  "args": [
    "0x5FbDB2315678afecb367f032d93F642f64180aa3",
    "0x9fE46736679d2D9a65F0992F2272dE9f3c7fa6e0",
    4,
    5,
    1
  ],
  "numDeployments": 1,
  "solcInputHash": "1c6e2565b69942d094a3236f3e54cfff",
  "bytecode": "0x61018060405234801561001157600080fd5b5060405161867a38038061867a83398181016040528101906100339190610c85565b838386838560046040518060400160405280601081526020017f476f7665726e6f72436f6e7472616374000000000000000000000000000000008152508061007f6101ca60201b60201c565b61009360008361020760201b90919060201c565b61012081815250506100af60018261020760201b90919060201c565b6101408181525050818051906020012060e08181525050808051906020012061010081815250504660a081815250506100ec61025760201b60201c565b608081815250503073ffffffffffffffffffffffffffffffffffffffff1660c08173ffffffffffffffffffffffffffffffffffffffff1681525050505080600390816101389190610f46565b5050610149836102b260201b60201c565b6101588261032760201b60201c565b610167816103e260201b60201c565b5050508073ffffffffffffffffffffffffffffffffffffffff166101608173ffffffffffffffffffffffffffffffffffffffff1681525050506101af8161042760201b60201c565b506101bf8161050360201b60201c565b5050505050506114ef565b60606040518060400160405280600181526020017f3100000000000000000000000000000000000000000000000000000000000000815250905090565b600060208351101561022957610222836105a260201b60201c565b9050610251565b826102398361060a60201b60201c565b60000190816102489190610f46565b5060ff60001b90505b92915050565b60007f8b73c3c69bb8fe3d512ecc4cf759cc79239f7b179b0ffacaa9a75d522b39400f60e05161010051463060405160200161029795949392919061104f565b60405160208183030381529060405280519060200120905090565b7fc565b045403dc03c2eea82b81a0465edad9e2e7fc4d97e11421c209da93d7a93600860009054906101000a900465ffffffffffff16826040516102f79291906110e5565b60405180910390a180600860006101000a81548165ffffffffffff021916908365ffffffffffff16021790555050565b60008163ffffffff16036103735760006040517ff1cfbf0500000000000000000000000000000000000000000000000000000000815260040161036a9190611149565b60405180910390fd5b7f7e3f7f0708a84de9203036abaa450dccc85ad5ff52f78c170f3edb55cf5e8828600860069054906101000a900463ffffffff16826040516103b69291906111a5565b60405180910390a180600860066101000a81548163ffffffff021916908363ffffffff16021790555050565b7fccb45da8d5717e6c4544694297c4ba5cf151d455c9bb0ed4fc7a38411bc05461600754826040516104159291906111ce565b60405180910390a18060078190555050565b600061043761061460201b60201c565b9050808211156104805781816040517f243e54450000000000000000000000000000000000000000000000000000000081526004016104779291906111ce565b60405180910390fd5b600061049061061d60201b60201c565b90506104c36104a361065060201b60201c565b6104b2856106e860201b60201c565b600a61075660201b9092919060201c565b50507f0553476bf02ef2726e8ce5ced78d63e26e602e4a2257b1f559418e24b463399781846040516104f69291906111ce565b60405180910390a1505050565b7f08f74ea46ef7894f65eabfb5e6e695de773a000b47c529ab559178069b226401600b60009054906101000a900473ffffffffffffffffffffffffffffffffffffffff16826040516105569291906111f7565b60405180910390a180600b60006101000a81548173ffffffffffffffffffffffffffffffffffffffff021916908373ffffffffffffffffffffffffffffffffffffffff16021790555050565b600080829050601f815111156105ef57826040517f305a27a90000000000000000000000000000000000000000000000000000000081526004016105e691906112a5565b60405180910390fd5b8051816105fb906112f7565b60001c1760001b915050919050565b6000819050919050565b60006064905090565b600061062f600a61077960201b60201c565b79ffffffffffffffffffffffffffffffffffffffffffffffffffff16905090565b60006106606107e760201b60201c565b73ffffffffffffffffffffffffffffffffffffffff166391ddadf46040518163ffffffff1660e01b8152600401602060405180830381865afa9250505080156106c757506040513d601f19601f820116820180604052508101906106c4919061138a565b60015b6106e0576106d96107f260201b60201c565b90506106e5565b809150505b90565b600079ffffffffffffffffffffffffffffffffffffffffffffffffffff801682111561074e5760d0826040517f6dfcc6500000000000000000000000000000000000000000000000000000000081526004016107459291906113ff565b60405180910390fd5b819050919050565b60008061076d85600001858561080860201b60201c565b91509150935093915050565b60008082600001805490509050600081146107dc576107ad836000016001836107a29190611457565b610b1b60201b60201c565b60000160069054906101000a900479ffffffffffffffffffffffffffffffffffffffffffffffffffff166107df565b60005b915050919050565b600061016051905090565b600061080343610b3060201b60201c565b905090565b6000806000858054905090506000811115610a2b57600061083b876001846108309190611457565b610b1b60201b60201c565b905060008160000160009054906101000a900465ffffffffffff16905060008260000160069054906101000a900479ffffffffffffffffffffffffffffffffffffffffffffffffffff1690508765ffffffffffff168265ffffffffffff1611156108d1576040517f2520601d00000000000000000000000000000000000000000000000000000000815260040160405180910390fd5b8765ffffffffffff168265ffffffffffff160361093c57868360000160066101000a81548179ffffffffffffffffffffffffffffffffffffffffffffffffffff021916908379ffffffffffffffffffffffffffffffffffffffffffffffffffff160217905550610a1c565b8860405180604001604052808a65ffffffffffff1681526020018979ffffffffffffffffffffffffffffffffffffffffffffffffffff168152509080600181540180825580915050600190039060005260206000200160009091909190915060008201518160000160006101000a81548165ffffffffffff021916908365ffffffffffff16021790555060208201518160000160066101000a81548179ffffffffffffffffffffffffffffffffffffffffffffffffffff021916908379ffffffffffffffffffffffffffffffffffffffffffffffffffff16021790555050505b80879550955050505050610b13565b8560405180604001604052808765ffffffffffff1681526020018679ffffffffffffffffffffffffffffffffffffffffffffffffffff168152509080600181540180825580915050600190039060005260206000200160009091909190915060008201518160000160006101000a81548165ffffffffffff021916908365ffffffffffff16021790555060208201518160000160066101000a81548179ffffffffffffffffffffffffffffffffffffffffffffffffffff021916908379ffffffffffffffffffffffffffffffffffffffffffffffffffff160217905550505060008492509250505b935093915050565b60008260005281602060002001905092915050565b600065ffffffffffff8016821115610b82576030826040517f6dfcc650000000000000000000000000000000000000000000000000000000008152600401610b799291906114c6565b60405180910390fd5b819050919050565b600080fd5b600073ffffffffffffffffffffffffffffffffffffffff82169050919050565b6000610bba82610b8f565b9050919050565b6000610bcc82610baf565b9050919050565b610bdc81610bc1565b8114610be757600080fd5b50565b600081519050610bf981610bd3565b92915050565b6000610c0a82610b8f565b9050919050565b6000610c1c82610bff565b9050919050565b610c2c81610c11565b8114610c3757600080fd5b50565b600081519050610c4981610c23565b92915050565b6000819050919050565b610c6281610c4f565b8114610c6d57600080fd5b50565b600081519050610c7f81610c59565b92915050565b600080600080600060a08688031215610ca157610ca0610b8a565b5b6000610caf88828901610bea565b9550506020610cc088828901610c3a565b9450506040610cd188828901610c70565b9350506060610ce288828901610c70565b9250506080610cf388828901610c70565b9150509295509295909350565b600081519050919050565b7f4e487b7100000000000000000000000000000000000000000000000000000000600052604160045260246000fd5b7f4e487b7100000000000000000000000000000000000000000000000000000000600052602260045260246000fd5b60006002820490506001821680610d8157607f821691505b602082108103610d9457610d93610d3a565b5b50919050565b60008190508160005260206000209050919050565b60006020601f8301049050919050565b600082821b905092915050565b600060088302610dfc7fffffffffffffffffffffffffffffffffffffffffffffffffffffffffffffffff82610dbf565b610e068683610dbf565b95508019841693508086168417925050509392505050565b6000819050919050565b6000610e43610e3e610e3984610c4f565b610e1e565b610c4f565b9050919050565b6000819050919050565b610e5d83610e28565b610e71610e6982610e4a565b848454610dcc565b825550505050565b600090565b610e86610e79565b610e91818484610e54565b505050565b5b81811015610eb557610eaa600082610e7e565b600181019050610e97565b5050565b601f821115610efa57610ecb81610d9a565b610ed484610daf565b81016020851015610ee3578190505b610ef7610eef85610daf565b830182610e96565b50505b505050565b600082821c905092915050565b6000610f1d60001984600802610eff565b1980831691505092915050565b6000610f368383610f0c565b9150826002028217905092915050565b610f4f82610d00565b67ffffffffffffffff811115610f6857610f67610d0b565b5b610f728254610d69565b610f7d828285610eb9565b600060209050601f831160018114610fb05760008415610f9e578287015190505b610fa88582610f2a565b865550611010565b601f198416610fbe86610d9a565b60005b82811015610fe657848901518255600182019150602085019450602081019050610fc1565b868310156110035784890151610fff601f891682610f0c565b8355505b6001600288020188555050505b505050505050565b6000819050919050565b61102b81611018565b82525050565b61103a81610c4f565b82525050565b61104981610baf565b82525050565b600060a0820190506110646000830188611022565b6110716020830187611022565b61107e6040830186611022565b61108b6060830185611031565b6110986080830184611040565b9695505050505050565b600065ffffffffffff82169050919050565b60006110cf6110ca6110c5846110a2565b610e1e565b610c4f565b9050919050565b6110df816110b4565b82525050565b60006040820190506110fa60008301856110d6565b61110760208301846110d6565b9392505050565b6000819050919050565b600061113361112e6111298461110e565b610e1e565b610c4f565b9050919050565b61114381611118565b82525050565b600060208201905061115e600083018461113a565b92915050565b600063ffffffff82169050919050565b600061118f61118a61118584611164565b610e1e565b610c4f565b9050919050565b61119f81611174565b82525050565b60006040820190506111ba6000830185611196565b6111c76020830184611196565b9392505050565b60006040820190506111e36000830185611031565b6111f06020830184611031565b9392505050565b600060408201905061120c6000830185611040565b6112196020830184611040565b9392505050565b600082825260208201905092915050565b60005b8381101561124f578082015181840152602081019050611234565b60008484015250505050565b6000601f19601f8301169050919050565b600061127782610d00565b6112818185611220565b9350611291818560208601611231565b61129a8161125b565b840191505092915050565b600060208201905081810360008301526112bf818461126c565b905092915050565b600081519050919050565b6000819050602082019050919050565b60006112ee8251611018565b80915050919050565b6000611302826112c7565b8261130c846112d2565b9050611317816112e2565b92506020821015611357576113527fffffffffffffffffffffffffffffffffffffffffffffffffffffffffffffffff83602003600802610dbf565b831692505b5050919050565b611367816110a2565b811461137257600080fd5b50565b6000815190506113848161135e565b92915050565b6000602082840312156113a05761139f610b8a565b5b60006113ae84828501611375565b91505092915050565b6000819050919050565b600060ff82169050919050565b60006113e96113e46113df846113b7565b610e1e565b6113c1565b9050919050565b6113f9816113ce565b82525050565b600060408201905061141460008301856113f0565b6114216020830184611031565b9392505050565b7f4e487b7100000000000000000000000000000000000000000000000000000000600052601160045260246000fd5b600061146282610c4f565b915061146d83610c4f565b925082820390508181111561148557611484611428565b5b92915050565b6000819050919050565b60006114b06114ab6114a68461148b565b610e1e565b6113c1565b9050919050565b6114c081611495565b82525050565b60006040820190506114db60008301856114b7565b6114e86020830184611031565b9392505050565b60805160a05160c05160e051610100516101205161014051610160516171266115546000396000611f7f01526000612e9801526000612e5d015260006147570152600061473601526000613973015260006139c9015260006139f201526171266000f3fe6080604052600436106102975760003560e01c80637ecebe001161015a578063c01f9e37116100c1578063e540d01d1161007a578063e540d01d14610bb3578063eb9019d414610bdc578063ece40cc114610c19578063f23a6e6114610c42578063f8ce560a14610c7f578063fc0c546a14610cbc5761030a565b8063c01f9e3714610a9c578063c28bc2fa14610ad9578063c59057e414610af5578063d33219b414610b32578063dd4e2ba514610b5d578063deaaa7cc14610b885761030a565b8063a7713a7011610113578063a7713a7014610966578063a890c91014610991578063a9a95294146109ba578063ab58fb8e146109f7578063b58131b014610a34578063bc197c8114610a5f5761030a565b80637ecebe001461082857806384b0196e146108655780638ff262e31461089657806391ddadf4146108d357806397c3d334146108fe5780639a802a6d146109295761030a565b806343859632116101fe5780635b8d0e0d116101b75780635b8d0e0d146106ce5780635f398a141461070b57806360c4247f1461074857806379051887146107855780637b3c71d3146107ae5780637d5e81e2146107eb5761030a565b80634385963214610582578063452115d6146105bf5780634bf5d7e9146105fc578063544ffc9c1461062757806354fd4d501461066657806356781388146106915761030a565b8063160cbed711610250578063160cbed7146104455780632656227d146104825780632d63f693146104b25780632fe3e261146104ef5780633932abb11461051a5780633e4f49e6146105455761030a565b806301ffc9a71461030f57806302a251a31461034c57806306f3f9e61461037757806306fdde03146103a0578063143489d0146103cb578063150b7a02146104085761030a565b3661030a573073ffffffffffffffffffffffffffffffffffffffff166102bb610ce7565b73ffffffffffffffffffffffffffffffffffffffff1614610308576040517fe90a651e00000000000000000000000000000000000000000000000000000000815260040160405180910390fd5b005b600080fd5b34801561031b57600080fd5b5061033660048036038101906103319190614bd1565b610cf6565b6040516103439190614c19565b60405180910390f35b34801561035857600080fd5b50610361610dd8565b60405161036e9190614c4d565b60405180910390f35b34801561038357600080fd5b5061039e60048036038101906103999190614c94565b610de7565b005b3480156103ac57600080fd5b506103b5610dfb565b6040516103c29190614d51565b60405180910390f35b3480156103d757600080fd5b506103f260048036038101906103ed9190614c94565b610e8d565b6040516103ff9190614db4565b60405180910390f35b34801561041457600080fd5b5061042f600480360381019061042a9190614f30565b610ecd565b60405161043c9190614fc2565b60405180910390f35b34801561045157600080fd5b5061046c6004803603810190610467919061527f565b610f4d565b6040516104799190614c4d565b60405180910390f35b61049c6004803603810190610497919061527f565b611049565b6040516104a99190614c4d565b60405180910390f35b3480156104be57600080fd5b506104d960048036038101906104d49190614c94565b611228565b6040516104e69190614c4d565b60405180910390f35b3480156104fb57600080fd5b50610504611262565b6040516105119190615349565b60405180910390f35b34801561052657600080fd5b5061052f611286565b60405161053c9190614c4d565b60405180910390f35b34801561055157600080fd5b5061056c60048036038101906105679190614c94565b611295565b60405161057991906153db565b60405180910390f35b34801561058e57600080fd5b506105a960048036038101906105a491906153f6565b6112a7565b6040516105b69190614c19565b60405180910390f35b3480156105cb57600080fd5b506105e660048036038101906105e1919061527f565b611312565b6040516105f39190614c4d565b60405180910390f35b34801561060857600080fd5b506106116113d4565b60405161061e9190614d51565b60405180910390f35b34801561063357600080fd5b5061064e60048036038101906106499190614c94565b611493565b60405161065d93929190615436565b60405180910390f35b34801561067257600080fd5b5061067b6114cb565b6040516106889190614d51565b60405180910390f35b34801561069d57600080fd5b506106b860048036038101906106b391906154a6565b611508565b6040516106c59190614c4d565b60405180910390f35b3480156106da57600080fd5b506106f560048036038101906106f09190615541565b611539565b6040516107029190614c4d565b60405180910390f35b34801561071757600080fd5b50610732600480360381019061072d9190615628565b61166a565b60405161073f9190614c4d565b60405180910390f35b34801561075457600080fd5b5061076f600480360381019061076a9190614c94565b6116d4565b60405161077c9190614c4d565b60405180910390f35b34801561079157600080fd5b506107ac60048036038101906107a7919061570a565b6117d8565b005b3480156107ba57600080fd5b506107d560048036038101906107d09190615737565b6117ec565b6040516107e29190614c4d565b60405180910390f35b3480156107f757600080fd5b50610812600480360381019061080d919061584c565b611854565b60405161081f9190614c4d565b60405180910390f35b34801561083457600080fd5b5061084f600480360381019061084a9190615923565b61194e565b60405161085c9190614c4d565b60405180910390f35b34801561087157600080fd5b5061087a611997565b60405161088d9796959493929190615a49565b60405180910390f35b3480156108a257600080fd5b506108bd60048036038101906108b89190615acd565b611a41565b6040516108ca9190614c4d565b60405180910390f35b3480156108df57600080fd5b506108e8611b17565b6040516108f59190615b5f565b60405180910390f35b34801561090a57600080fd5b50610913611ba3565b6040516109209190614c4d565b60405180910390f35b34801561093557600080fd5b50610950600480360381019061094b9190615b7a565b611bac565b60405161095d9190614c4d565b60405180910390f35b34801561097257600080fd5b5061097b611bc2565b6040516109889190614c4d565b60405180910390f35b34801561099d57600080fd5b506109b860048036038101906109b39190615c39565b611bef565b005b3480156109c657600080fd5b506109e160048036038101906109dc9190614c94565b611c03565b6040516109ee9190614c19565b60405180910390f35b348015610a0357600080fd5b50610a1e6004803603810190610a199190614c94565b611c15565b604051610a2b9190614c4d565b60405180910390f35b348015610a4057600080fd5b50610a49611c4f565b604051610a569190614c4d565b60405180910390f35b348015610a6b57600080fd5b50610a866004803603810190610a819190615c66565b611c5e565b604051610a939190614fc2565b60405180910390f35b348015610aa857600080fd5b50610ac36004803603810190610abe9190614c94565b611cdf565b604051610ad09190614c4d565b60405180910390f35b610af36004803603810190610aee9190615d8b565b611d50565b005b348015610b0157600080fd5b50610b1c6004803603810190610b17919061527f565b611ddd565b604051610b299190614c4d565b60405180910390f35b348015610b3e57600080fd5b50610b47611e19565b604051610b549190614db4565b60405180910390f35b348015610b6957600080fd5b50610b72611e43565b604051610b7f9190614d51565b60405180910390f35b348015610b9457600080fd5b50610b9d611e80565b604051610baa9190615349565b60405180910390f35b348015610bbf57600080fd5b50610bda6004803603810190610bd59190615e3b565b611ea4565b005b348015610be857600080fd5b50610c036004803603810190610bfe9190615e68565b611eb8565b604051610c109190614c4d565b60405180910390f35b348015610c2557600080fd5b50610c406004803603810190610c3b9190614c94565b611ed4565b005b348015610c4e57600080fd5b50610c696004803603810190610c649190615ea8565b611ee8565b604051610c769190614fc2565b60405180910390f35b348015610c8b57600080fd5b50610ca66004803603810190610ca19190614c94565b611f69565b604051610cb39190614c4d565b60405180910390f35b348015610cc857600080fd5b50610cd1611f7b565b604051610cde9190615f9e565b60405180910390f35b6000610cf1611fa3565b905090565b60007f65455a86000000000000000000000000000000000000000000000000000000007bffffffffffffffffffffffffffffffffffffffffffffffffffffffff1916827bffffffffffffffffffffffffffffffffffffffffffffffffffffffff19161480610dc157507f4e2312e0000000000000000000000000000000000000000000000000000000007bffffffffffffffffffffffffffffffffffffffffffffffffffffffff1916827bffffffffffffffffffffffffffffffffffffffffffffffffffffffff1916145b80610dd15750610dd082611fcd565b5b9050919050565b6000610de2612037565b905090565b610def612057565b610df88161214d565b50565b606060038054610e0a90615fe8565b80601f0160208091040260200160405190810160405280929190818152602001828054610e3690615fe8565b8015610e835780601f10610e5857610100808354040283529160200191610e83565b820191906000526020600020905b815481529060010190602001808311610e6657829003601f168201915b5050505050905090565b60006004600083815260200190815260200160002060000160009054906101000a900473ffffffffffffffffffffffffffffffffffffffff169050919050565b60003073ffffffffffffffffffffffffffffffffffffffff16610eee610ce7565b73ffffffffffffffffffffffffffffffffffffffff1614610f3b576040517fe90a651e00000000000000000000000000000000000000000000000000000000815260040160405180910390fd5b63150b7a0260e01b9050949350505050565b600080610f5c86868686611ddd565b9050610f7181610f6c6004612211565b612237565b506000610f8182888888886122a4565b905060008165ffffffffffff161461100a57806004600084815260200190815260200160002060010160006101000a81548165ffffffffffff021916908365ffffffffffff1602179055507f9a2e42fd6722813d69113e7d0079d3d940171428df7373df9c7f7617cfda28928282604051610ffd92919061604a565b60405180910390a161103c565b6040517f90884a4600000000000000000000000000000000000000000000000000000000815260040160405180910390fd5b8192505050949350505050565b60008061105886868686611ddd565b9050611078816110686005612211565b6110726004612211565b17612237565b50600160046000838152602001908152602001600020600001601e6101000a81548160ff0219169083151502179055503073ffffffffffffffffffffffffffffffffffffffff166110c7610ce7565b73ffffffffffffffffffffffffffffffffffffffff161461117e5760005b865181101561117c573073ffffffffffffffffffffffffffffffffffffffff1687828151811061111857611117616073565b5b602002602001015173ffffffffffffffffffffffffffffffffffffffff16036111715761117085828151811061115157611150616073565b5b60200260200101518051906020012060056122be90919063ffffffff16565b5b8060010190506110e5565b505b61118b81878787876123bd565b3073ffffffffffffffffffffffffffffffffffffffff166111aa610ce7565b73ffffffffffffffffffffffffffffffffffffffff16141580156111d557506111d360056123d1565b155b156111e5576111e46005612441565b5b7f712ae1383f79ac853f8d882153778e0260ef8f03b504e2866e0593e04d2b291f816040516112149190614c4d565b60405180910390a180915050949350505050565b60006004600083815260200190815260200160002060000160149054906101000a900465ffffffffffff1665ffffffffffff169050919050565b7f3e83946653575f9a39005e1545185629e92736b7528ab20ca3816f315424a81181565b60006112906124bc565b905090565b60006112a0826124e0565b9050919050565b60006009600084815260200190815260200160002060030160008373ffffffffffffffffffffffffffffffffffffffff1673ffffffffffffffffffffffffffffffffffffffff16815260200190815260200160002060009054906101000a900460ff16905092915050565b60008061132186868686611ddd565b9050611336816113316000612211565b612237565b5061134081610e8d565b73ffffffffffffffffffffffffffffffffffffffff1661135e61269f565b73ffffffffffffffffffffffffffffffffffffffff16146113bd5761138161269f565b6040517f233d98e30000000000000000000000000000000000000000000000000000000081526004016113b49190614db4565b60405180910390fd5b6113c9868686866126a7565b915050949350505050565b60606113de611f7b565b73ffffffffffffffffffffffffffffffffffffffff16634bf5d7e96040518163ffffffff1660e01b8152600401600060405180830381865afa92505050801561144a57506040513d6000823e3d601f19601f820116820180604052508101906114479190616112565b60015b61148b576040518060400160405280601d81526020017f6d6f64653d626c6f636b6e756d6265722666726f6d3d64656661756c740000008152509050611490565b809150505b90565b600080600080600960008681526020019081526020016000209050806000015481600101548260020154935093509350509193909250565b60606040518060400160405280600181526020017f3100000000000000000000000000000000000000000000000000000000000000815250905090565b60008061151361269f565b9050611530848285604051806020016040528060008152506126bf565b91505092915050565b6000806115c7876115c17f3e83946653575f9a39005e1545185629e92736b7528ab20ca3816f315424a8118c8c8c6115708e6126df565b8d8d60405161158092919061618b565b60405180910390208c805190602001206040516020016115a697969594939291906161b3565b60405160208183030381529060405280519060200120612736565b85612750565b90508061160b57866040517f94ab6c070000000000000000000000000000000000000000000000000000000081526004016116029190614db4565b60405180910390fd5b61165c89888a89898080601f016020809104026020016040519081016040528093929190818152602001838380828437600081840152601f19601f82011690508083019250505050505050886127ff565b915050979650505050505050565b60008061167561269f565b90506116c887828888888080601f016020809104026020016040519081016040528093929190818152602001838380828437600081840152601f19601f82011690508083019250505050505050876127ff565b91505095945050505050565b600080600a6000018054905090506000600a6000016001836116f69190616251565b8154811061170757611706616073565b5b90600052602060002001905060008160000160009054906101000a900465ffffffffffff16905060008260000160069054906101000a900479ffffffffffffffffffffffffffffffffffffffffffffffffffff169050858265ffffffffffff1611611794578079ffffffffffffffffffffffffffffffffffffffffffffffffffff169450505050506117d3565b6117b06117a08761290d565b600a61296790919063ffffffff16565b79ffffffffffffffffffffffffffffffffffffffffffffffffffff169450505050505b919050565b6117e0612057565b6117e981612a61565b50565b6000806117f761269f565b905061184986828787878080601f016020809104026020016040519081016040528093929190818152602001838380828437600081840152601f19601f820116905080830192505050505050506126bf565b915050949350505050565b60008061185f61269f565b905061186b8184612ad6565b6118ac57806040517fd9b395570000000000000000000000000000000000000000000000000000000081526004016118a39190614db4565b60405180910390fd5b60006118b6611c4f565b905060008111156119355760006118e88360016118d1611b17565b6118db9190616285565b65ffffffffffff16611eb8565b905081811015611933578281836040517fc242ee1600000000000000000000000000000000000000000000000000000000815260040161192a939291906162bf565b60405180910390fd5b505b6119428787878786612bbf565b92505050949350505050565b6000600260008373ffffffffffffffffffffffffffffffffffffffff1673ffffffffffffffffffffffffffffffffffffffff168152602001908152602001600020549050919050565b6000606080600080600060606119ab612e54565b6119b3612e8f565b46306000801b600067ffffffffffffffff8111156119d4576119d3614e05565b5b604051908082528060200260200182016040528015611a025781602001602082028036833780820191505090505b507f0f00000000000000000000000000000000000000000000000000000000000000959493929190965096509650965096509650965090919293949596565b600080611aad84611aa77ff2aad550cf55f045cb27e9c559f9889fdfb6e6cdaa032301d6ea397784ae51d7898989611a788b6126df565b604051602001611a8c9594939291906162f6565b60405160208183030381529060405280519060200120612736565b85612750565b905080611af157836040517f94ab6c07000000000000000000000000000000000000000000000000000000008152600401611ae89190614db4565b60405180910390fd5b611b0c868587604051806020016040528060008152506126bf565b915050949350505050565b6000611b21611f7b565b73ffffffffffffffffffffffffffffffffffffffff166391ddadf46040518163ffffffff1660e01b8152600401602060405180830381865afa925050508015611b8857506040513d601f19601f82011682018060405250810190611b85919061635e565b60015b611b9b57611b94612eca565b9050611ba0565b809150505b90565b60006064905090565b6000611bb9848484612eda565b90509392505050565b6000611bce600a612f68565b79ffffffffffffffffffffffffffffffffffffffffffffffffffff16905090565b611bf7612057565b611c0081612fd0565b50565b6000611c0e8261306f565b9050919050565b60006004600083815260200190815260200160002060010160009054906101000a900465ffffffffffff1665ffffffffffff169050919050565b6000611c5961307a565b905090565b60003073ffffffffffffffffffffffffffffffffffffffff16611c7f610ce7565b73ffffffffffffffffffffffffffffffffffffffff1614611ccc576040517fe90a651e00000000000000000000000000000000000000000000000000000000815260040160405180910390fd5b63bc197c8160e01b905095945050505050565b600060046000838152602001908152602001600020600001601a9054906101000a900463ffffffff1663ffffffff166004600084815260200190815260200160002060000160149054906101000a900465ffffffffffff16611d41919061638b565b65ffffffffffff169050919050565b611d58612057565b6000808573ffffffffffffffffffffffffffffffffffffffff16858585604051611d8392919061618b565b60006040518083038185875af1925050503d8060008114611dc0576040519150601f19603f3d011682016040523d82523d6000602084013e611dc5565b606091505b5091509150611dd48282613084565b50505050505050565b600084848484604051602001611df6949392919061659a565b6040516020818303038152906040528051906020012060001c9050949350505050565b6000600b60009054906101000a900473ffffffffffffffffffffffffffffffffffffffff16905090565b60606040518060400160405280602081526020017f737570706f72743d627261766f2671756f72756d3d666f722c6162737461696e815250905090565b7ff2aad550cf55f045cb27e9c559f9889fdfb6e6cdaa032301d6ea397784ae51d781565b611eac612057565b611eb5816130a8565b50565b6000611ecc8383611ec7613163565b612eda565b905092915050565b611edc612057565b611ee58161317a565b50565b60003073ffffffffffffffffffffffffffffffffffffffff16611f09610ce7565b73ffffffffffffffffffffffffffffffffffffffff1614611f56576040517fe90a651e00000000000000000000000000000000000000000000000000000000815260040160405180910390fd5b63f23a6e6160e01b905095945050505050565b6000611f74826131bf565b9050919050565b60007f0000000000000000000000000000000000000000000000000000000000000000905090565b6000600b60009054906101000a900473ffffffffffffffffffffffffffffffffffffffff16905090565b60007f01ffc9a7000000000000000000000000000000000000000000000000000000007bffffffffffffffffffffffffffffffffffffffffffffffffffffffff1916827bffffffffffffffffffffffffffffffffffffffffffffffffffffffff1916149050919050565b6000600860069054906101000a900463ffffffff1663ffffffff16905090565b61205f61269f565b73ffffffffffffffffffffffffffffffffffffffff1661207d610ce7565b73ffffffffffffffffffffffffffffffffffffffff16146120dc576120a061269f565b6040517f47096e470000000000000000000000000000000000000000000000000000000081526004016120d39190614db4565b60405180910390fd5b3073ffffffffffffffffffffffffffffffffffffffff166120fb610ce7565b73ffffffffffffffffffffffffffffffffffffffff161461214b57600061212061326e565b60405161212e92919061618b565b604051809103902090505b80612144600561327b565b0361213957505b565b6000612157611ba3565b9050808211156121a05781816040517f243e54450000000000000000000000000000000000000000000000000000000081526004016121979291906165f4565b60405180910390fd5b60006121aa611bc2565b90506121d16121b7611b17565b6121c0856133b4565b600a6134229092919063ffffffff16565b50507f0553476bf02ef2726e8ce5ced78d63e26e602e4a2257b1f559418e24b463399781846040516122049291906165f4565b60405180910390a1505050565b600081600781111561222657612225615364565b5b60ff166001901b60001b9050919050565b60008061224384611295565b90506000801b8361225383612211565b160361229a578381846040517f31b75e4d0000000000000000000000000000000000000000000000000000000081526004016122919392919061661d565b60405180910390fd5b8091505092915050565b60006122b3868686868661343f565b905095945050505050565b60008260000160109054906101000a90046fffffffffffffffffffffffffffffffff1690508260000160009054906101000a90046fffffffffffffffffffffffffffffffff166fffffffffffffffffffffffffffffffff16600182016fffffffffffffffffffffffffffffffff160361233c5761233b6041613657565b5b81836001016000836fffffffffffffffffffffffffffffffff166fffffffffffffffffffffffffffffffff16815260200190815260200160002081905550600181018360000160106101000a8154816fffffffffffffffffffffffffffffffff02191690836fffffffffffffffffffffffffffffffff160217905550505050565b6123ca8585858585613669565b5050505050565b60008160000160009054906101000a90046fffffffffffffffffffffffffffffffff166fffffffffffffffffffffffffffffffff168260000160109054906101000a90046fffffffffffffffffffffffffffffffff166fffffffffffffffffffffffffffffffff16149050919050565b60008160000160006101000a8154816fffffffffffffffffffffffffffffffff02191690836fffffffffffffffffffffffffffffffff16021790555060008160000160106101000a8154816fffffffffffffffffffffffffffffffff02191690836fffffffffffffffffffffffffffffffff16021790555050565b6000600860009054906101000a900465ffffffffffff1665ffffffffffff16905090565b6000806124ec83613726565b90506005600781111561250257612501615364565b5b81600781111561251557612514615364565b5b14612523578091505061269a565b6000600c6000858152602001908152602001600020549050600b60009054906101000a900473ffffffffffffffffffffffffffffffffffffffff1673ffffffffffffffffffffffffffffffffffffffff1663584b153e826040518263ffffffff1660e01b81526004016125969190615349565b602060405180830381865afa1580156125b3573d6000803e3d6000fd5b505050506040513d601f19601f820116820180604052508101906125d79190616680565b156125e75760059250505061269a565b600b60009054906101000a900473ffffffffffffffffffffffffffffffffffffffff1673ffffffffffffffffffffffffffffffffffffffff16632ab0f529826040518263ffffffff1660e01b81526004016126429190615349565b602060405180830381865afa15801561265f573d6000803e3d6000fd5b505050506040513d601f19601f820116820180604052508101906126839190616680565b156126935760079250505061269a565b6002925050505b919050565b600033905090565b60006126b58585858561388a565b9050949350505050565b60006126d5858585856126d0613163565b6127ff565b9050949350505050565b6000600260008373ffffffffffffffffffffffffffffffffffffffff1673ffffffffffffffffffffffffffffffffffffffff1681526020019081526020016000206000815480929190600101919050559050919050565b600061274961274361396f565b83613a26565b9050919050565b6000808473ffffffffffffffffffffffffffffffffffffffff163b036127ea5760008061277d8585613a67565b50915091506000600381111561279657612795615364565b5b8160038111156127a9576127a8615364565b5b1480156127e157508573ffffffffffffffffffffffffffffffffffffffff168273ffffffffffffffffffffffffffffffffffffffff16145b925050506127f8565b6127f5848484613ac3565b90505b9392505050565b60006128148661280f6001612211565b612237565b50600061282a8661282489611228565b85612eda565b9050600061283b8888888588613be7565b9050600084510361289f578673ffffffffffffffffffffffffffffffffffffffff167fb8e138887d0aa13bab447e82de9d5c1777041ecd21ca36ba824ff1e6c07ddda48988848960405161289294939291906166ad565b60405180910390a26128f6565b8673ffffffffffffffffffffffffffffffffffffffff167fe2babfbac5889a709b63bb7f598b324e08bc5a4fb9ec647fb3cbc9ec07eb871289888489896040516128ed959493929190616743565b60405180910390a25b6128ff88613dea565b809250505095945050505050565b600065ffffffffffff801682111561295f576030826040517f6dfcc6500000000000000000000000000000000000000000000000000000000081526004016129569291906167df565b60405180910390fd5b819050919050565b6000808360000180549050905060008082905060058311156129ef57600061298e84613ded565b846129999190616251565b90506129a88760000182613f8a565b60000160009054906101000a900465ffffffffffff1665ffffffffffff168665ffffffffffff1610156129dd578091506129ed565b6001816129ea9190616808565b92505b505b6000612a0087600001878585613f9f565b905060008114612a5257612a2387600001600183612a1e9190616251565b613f8a565b60000160069054906101000a900479ffffffffffffffffffffffffffffffffffffffffffffffffffff16612a55565b60005b94505050505092915050565b7fc565b045403dc03c2eea82b81a0465edad9e2e7fc4d97e11421c209da93d7a93600860009054906101000a900465ffffffffffff1682604051612aa692919061683c565b60405180910390a180600860006101000a81548165ffffffffffff021916908365ffffffffffff16021790555050565b600080825190506034811015612af0576001915050612bb9565b6000612aff8460348403614018565b90507f2370726f706f7365723d0000000000000000000000000000000000000000000075ffffffffffffffffffffffffffffffffffffffffffff19168175ffffffffffffffffffffffffffffffffffffffffffff191614612b6557600192505050612bb9565b600080612b7686602a860386614029565b91509150811580612bb257508673ffffffffffffffffffffffffffffffffffffffff168173ffffffffffffffffffffffffffffffffffffffff16145b9450505050505b92915050565b6000612bd48686868680519060200120611ddd565b905084518651141580612be957508351865114155b80612bf5575060008651145b15612c3e578551845186516040517f447b05d0000000000000000000000000000000000000000000000000000000008152600401612c3593929190615436565b60405180910390fd5b60006004600083815260200190815260200160002060000160149054906101000a900465ffffffffffff1665ffffffffffff1614612cc25780612c8082611295565b6000801b6040517f31b75e4d000000000000000000000000000000000000000000000000000000008152600401612cb99392919061661d565b60405180910390fd5b6000612ccc611286565b612cd4611b17565b65ffffffffffff16612ce69190616808565b90506000612cf2610dd8565b90506000600460008581526020019081526020016000209050848160000160006101000a81548173ffffffffffffffffffffffffffffffffffffffff021916908373ffffffffffffffffffffffffffffffffffffffff160217905550612d578361290d565b8160000160146101000a81548165ffffffffffff021916908365ffffffffffff160217905550612d8682614140565b81600001601a6101000a81548163ffffffff021916908363ffffffff1602179055507f7d84a6263ae0d98d3329bd7b46bb4e8d6f98cd35a7adb45c274c8b7fd5ebd5e084868b8b8d5167ffffffffffffffff811115612de857612de7614e05565b5b604051908082528060200260200182016040528015612e1b57816020015b6060815260200190600190039081612e065790505b508c89898b612e2a9190616808565b8e604051612e4099989796959493929190616971565b60405180910390a150505095945050505050565b6060612e8a60007f000000000000000000000000000000000000000000000000000000000000000061419890919063ffffffff16565b905090565b6060612ec560017f000000000000000000000000000000000000000000000000000000000000000061419890919063ffffffff16565b905090565b6000612ed54361290d565b905090565b6000612ee4611f7b565b73ffffffffffffffffffffffffffffffffffffffff16633a46b1a885856040518363ffffffff1660e01b8152600401612f1e929190616a21565b602060405180830381865afa158015612f3b573d6000803e3d6000fd5b505050506040513d601f19601f82011682018060405250810190612f5f9190616a5f565b90509392505050565b6000808260000180549050905060008114612fc557612f9683600001600183612f919190616251565b613f8a565b60000160069054906101000a900479ffffffffffffffffffffffffffffffffffffffffffffffffffff16612fc8565b60005b915050919050565b7f08f74ea46ef7894f65eabfb5e6e695de773a000b47c529ab559178069b226401600b60009054906101000a900473ffffffffffffffffffffffffffffffffffffffff1682604051613023929190616a8c565b60405180910390a180600b60006101000a81548173ffffffffffffffffffffffffffffffffffffffff021916908373ffffffffffffffffffffffffffffffffffffffff16021790555050565b600060019050919050565b6000600754905090565b6060826130995761309482614248565b6130a1565b8190506130a2565b5b92915050565b60008163ffffffff16036130f45760006040517ff1cfbf050000000000000000000000000000000000000000000000000000000081526004016130eb9190616af0565b60405180910390fd5b7f7e3f7f0708a84de9203036abaa450dccc85ad5ff52f78c170f3edb55cf5e8828600860069054906101000a900463ffffffff1682604051613137929190616b3c565b60405180910390a180600860066101000a81548163ffffffff021916908363ffffffff16021790555050565b606060405180602001604052806000815250905090565b7fccb45da8d5717e6c4544694297c4ba5cf151d455c9bb0ed4fc7a38411bc05461600754826040516131ad9291906165f4565b60405180910390a18060078190555050565b60006131c9611ba3565b6131d2836116d4565b6131da611f7b565b73ffffffffffffffffffffffffffffffffffffffff16638e539e8c856040518263ffffffff1660e01b81526004016132129190614c4d565b602060405180830381865afa15801561322f573d6000803e3d6000fd5b505050506040513d601f19601f820116820180604052508101906132539190616a5f565b61325d9190616b65565b6132679190616bd6565b9050919050565b3660008036915091509091565b6000808260000160009054906101000a90046fffffffffffffffffffffffffffffffff1690508260000160109054906101000a90046fffffffffffffffffffffffffffffffff166fffffffffffffffffffffffffffffffff16816fffffffffffffffffffffffffffffffff16036132f7576132f66031613657565b5b826001016000826fffffffffffffffffffffffffffffffff166fffffffffffffffffffffffffffffffff168152602001908152602001600020549150826001016000826fffffffffffffffffffffffffffffffff166fffffffffffffffffffffffffffffffff16815260200190815260200160002060009055600181018360000160006101000a8154816fffffffffffffffffffffffffffffffff02191690836fffffffffffffffffffffffffffffffff16021790555050919050565b600079ffffffffffffffffffffffffffffffffffffffffffffffffffff801682111561341a5760d0826040517f6dfcc650000000000000000000000000000000000000000000000000000000008152600401613411929190616c42565b60405180910390fd5b819050919050565b60008061343385600001858561428d565b91509150935093915050565b600080600b60009054906101000a900473ffffffffffffffffffffffffffffffffffffffff1673ffffffffffffffffffffffffffffffffffffffff1663f27a0c926040518163ffffffff1660e01b8152600401602060405180830381865afa1580156134af573d6000803e3d6000fd5b505050506040513d601f19601f820116820180604052508101906134d39190616a5f565b905060006134e08461459a565b9050600b60009054906101000a900473ffffffffffffffffffffffffffffffffffffffff1673ffffffffffffffffffffffffffffffffffffffff1663b1c5f4278888886000866040518663ffffffff1660e01b8152600401613546959493929190616ca9565b602060405180830381865afa158015613563573d6000803e3d6000fd5b505050506040513d601f19601f820116820180604052508101906135879190616d26565b600c60008a815260200190815260200160002081905550600b60009054906101000a900473ffffffffffffffffffffffffffffffffffffffff1673ffffffffffffffffffffffffffffffffffffffff16638f2a0bb0888888600086886040518763ffffffff1660e01b815260040161360496959493929190616d53565b600060405180830381600087803b15801561361e57600080fd5b505af1158015613632573d6000803e3d6000fd5b5050505061364a82426136459190616808565b61290d565b9250505095945050505050565b634e487b71600052806020526024601cfd5b600b60009054906101000a900473ffffffffffffffffffffffffffffffffffffffff1673ffffffffffffffffffffffffffffffffffffffff1663e38335e53486868660006136b68861459a565b6040518763ffffffff1660e01b81526004016136d6959493929190616ca9565b6000604051808303818588803b1580156136ef57600080fd5b505af1158015613703573d6000803e3d6000fd5b5050505050600c6000868152602001908152602001600020600090555050505050565b600080600460008481526020019081526020016000209050600081600001601e9054906101000a900460ff169050600082600001601f9054906101000a900460ff169050811561377c5760079350505050613885565b801561378e5760029350505050613885565b600061379986611228565b9050600081036137e057856040517f6ad060750000000000000000000000000000000000000000000000000000000081526004016137d79190614c4d565b60405180910390fd5b60006137ea611b17565b65ffffffffffff16905080821061380957600095505050505050613885565b600061381488611cdf565b905081811061382c5760019650505050505050613885565b613835886145b8565b15806138475750613845886145ff565b155b1561385b5760039650505050505050613885565b600061386689611c15565b0361387a5760049650505050505050613885565b600596505050505050505b919050565b6000806138998686868661462a565b90506000600c60008381526020019081526020016000205490506000801b811461396257600b60009054906101000a900473ffffffffffffffffffffffffffffffffffffffff1673ffffffffffffffffffffffffffffffffffffffff1663c4d252f5826040518263ffffffff1660e01b81526004016139189190615349565b600060405180830381600087803b15801561393257600080fd5b505af1158015613946573d6000803e3d6000fd5b50505050600c6000838152602001908152602001600020600090555b8192505050949350505050565b60007f000000000000000000000000000000000000000000000000000000000000000073ffffffffffffffffffffffffffffffffffffffff163073ffffffffffffffffffffffffffffffffffffffff161480156139eb57507f000000000000000000000000000000000000000000000000000000000000000046145b15613a18577f00000000000000000000000000000000000000000000000000000000000000009050613a23565b613a20614711565b90505b90565b60006040517f190100000000000000000000000000000000000000000000000000000000000081528360028201528260228201526042812091505092915050565b60008060006041845103613aac5760008060006020870151925060408701519150606087015160001a9050613a9e888285856147a7565b955095509550505050613abc565b60006002855160001b9250925092505b9250925092565b60008060008573ffffffffffffffffffffffffffffffffffffffff168585604051602401613af2929190616dc9565b604051602081830303815290604052631626ba7e60e01b6020820180517bffffffffffffffffffffffffffffffffffffffffffffffffffffffff8381831617835250505050604051613b449190616e2a565b600060405180830381855afa9150503d8060008114613b7f576040519150601f19603f3d011682016040523d82523d6000602084013e613b84565b606091505b5091509150818015613b9857506020815110155b8015613bdc5750631626ba7e60e01b7bffffffffffffffffffffffffffffffffffffffffffffffffffffffff191681806020019051810190613bda9190616d26565b145b925050509392505050565b6000806009600088815260200190815260200160002090508060030160008773ffffffffffffffffffffffffffffffffffffffff1673ffffffffffffffffffffffffffffffffffffffff16815260200190815260200160002060009054906101000a900460ff1615613c9057856040517f71c6af49000000000000000000000000000000000000000000000000000000008152600401613c879190614db4565b60405180910390fd5b60018160030160008873ffffffffffffffffffffffffffffffffffffffff1673ffffffffffffffffffffffffffffffffffffffff16815260200190815260200160002060006101000a81548160ff02191690831515021790555060006002811115613cfe57613cfd615364565b5b60ff168560ff1603613d2a5783816000016000828254613d1e9190616808565b92505081905550613ddd565b60016002811115613d3e57613d3d615364565b5b60ff168560ff1603613d6a5783816001016000828254613d5e9190616808565b92505081905550613ddc565b600280811115613d7d57613d7c615364565b5b60ff168560ff1603613da95783816002016000828254613d9d9190616808565b92505081905550613ddb565b6040517f06b337c200000000000000000000000000000000000000000000000000000000815260040160405180910390fd5b5b5b8391505095945050505050565b50565b600060018211613dff57819050613f85565b60008290506000600190507001000000000000000000000000000000008210613e3157608082901c9150604081901b90505b680100000000000000008210613e5057604082901c9150602081901b90505b6401000000008210613e6b57602082901c9150601081901b90505b620100008210613e8457601082901c9150600881901b90505b6101008210613e9c57600882901c9150600481901b90505b60108210613eb357600482901c9150600281901b90505b60048210613ec357600181901b90505b600181600302901c90506001818581613edf57613ede616ba7565b5b048201901c90506001818581613ef857613ef7616ba7565b5b048201901c90506001818581613f1157613f10616ba7565b5b048201901c90506001818581613f2a57613f29616ba7565b5b048201901c90506001818581613f4357613f42616ba7565b5b048201901c90506001818581613f5c57613f5b616ba7565b5b048201901c9050613f7e818581613f7657613f75616ba7565b5b04821161489b565b8103925050505b919050565b60008260005281602060002001905092915050565b60005b8183101561400d576000613fb684846148a7565b90508465ffffffffffff16613fcb8783613f8a565b60000160009054906101000a900465ffffffffffff1665ffffffffffff161115613ff757809250614007565b6001816140049190616808565b93505b50613fa2565b819050949350505050565b600081602001830151905092915050565b600080845183118061403a57508284115b1561404b5760008091509150614138565b600060018561405a9190616808565b841180156140d257507f30780000000000000000000000000000000000000000000000000000000000007dffffffffffffffffffffffffffffffffffffffffffffffffffffffffffff19166140af87876148cd565b7dffffffffffffffffffffffffffffffffffffffffffffffffffffffffffff1916145b9050600060026140e383151561489b565b6140ed9190616b65565b60286140f99190616808565b90508086866141089190616251565b0361412e5760008061411b8989896148de565b9150915081819550955050505050614138565b6000809350935050505b935093915050565b600063ffffffff8016821115614190576020826040517f6dfcc650000000000000000000000000000000000000000000000000000000008152600401614187929190616e7c565b60405180910390fd5b819050919050565b606060ff60001b83146141b5576141ae83614a10565b9050614242565b8180546141c190615fe8565b80601f01602080910402602001604051908101604052809291908181526020018280546141ed90615fe8565b801561423a5780601f1061420f5761010080835404028352916020019161423a565b820191906000526020600020905b81548152906001019060200180831161421d57829003601f168201915b505050505090505b92915050565b60008151111561425b5780518082602001fd5b6040517fd6bda27500000000000000000000000000000000000000000000000000000000815260040160405180910390fd5b60008060008580549050905060008111156144aa5760006142ba876001846142b59190616251565b613f8a565b905060008160000160009054906101000a900465ffffffffffff16905060008260000160069054906101000a900479ffffffffffffffffffffffffffffffffffffffffffffffffffff1690508765ffffffffffff168265ffffffffffff161115614350576040517f2520601d00000000000000000000000000000000000000000000000000000000815260040160405180910390fd5b8765ffffffffffff168265ffffffffffff16036143bb57868360000160066101000a81548179ffffffffffffffffffffffffffffffffffffffffffffffffffff021916908379ffffffffffffffffffffffffffffffffffffffffffffffffffff16021790555061449b565b8860405180604001604052808a65ffffffffffff1681526020018979ffffffffffffffffffffffffffffffffffffffffffffffffffff168152509080600181540180825580915050600190039060005260206000200160009091909190915060008201518160000160006101000a81548165ffffffffffff021916908365ffffffffffff16021790555060208201518160000160066101000a81548179ffffffffffffffffffffffffffffffffffffffffffffffffffff021916908379ffffffffffffffffffffffffffffffffffffffffffffffffffff16021790555050505b80879550955050505050614592565b8560405180604001604052808765ffffffffffff1681526020018679ffffffffffffffffffffffffffffffffffffffffffffffffffff168152509080600181540180825580915050600190039060005260206000200160009091909190915060008201518160000160006101000a81548165ffffffffffff021916908365ffffffffffff16021790555060208201518160000160066101000a81548179ffffffffffffffffffffffffffffffffffffffffffffffffffff021916908379ffffffffffffffffffffffffffffffffffffffffffffffffffff160217905550505060008492509250505b935093915050565b6000813060601b6bffffffffffffffffffffffff1916189050919050565b600080600960008481526020019081526020016000209050806002015481600101546145e49190616808565b6145f56145f085611228565b611f69565b1115915050919050565b6000806009600084815260200190815260200160002090508060000154816001015411915050919050565b60008061463986868686611ddd565b905061469e816146496007612211565b6146536006612211565b61465d6002612211565b60018060078081111561467357614672615364565b5b61467d9190616ea5565b6002614689919061700d565b6146939190616251565b60001b181818612237565b50600160046000838152602001908152602001600020600001601f6101000a81548160ff0219169083151502179055507f789cf55be980739dad1d0699b93b58e806b51c9d96619bfa8fe0a28abaa7b30c816040516146fd9190614c4d565b60405180910390a180915050949350505050565b60007f8b73c3c69bb8fe3d512ecc4cf759cc79239f7b179b0ffacaa9a75d522b39400f7f00000000000000000000000000000000000000000000000000000000000000007f0000000000000000000000000000000000000000000000000000000000000000463060405160200161478c959493929190617058565b60405160208183030381529060405280519060200120905090565b60008060007f7fffffffffffffffffffffffffffffff5d576e7357a4501ddfe92f46681b20a08460001c11156147e7576000600385925092509250614891565b60006001888888886040516000815260200160405260405161480c94939291906170ab565b6020604051602081039080840390855afa15801561482e573d6000803e3d6000fd5b505050602060405103519050600073ffffffffffffffffffffffffffffffffffffffff168173ffffffffffffffffffffffffffffffffffffffff160361488257600060016000801b93509350935050614891565b8060008060001b935093509350505b9450945094915050565b60008115159050919050565b600060028284186148b89190616bd6565b8284166148c59190616808565b905092915050565b600081602001830151905092915050565b600080600085905060006001866148f59190616808565b8511801561496d57507f30780000000000000000000000000000000000000000000000000000000000007dffffffffffffffffffffffffffffffffffffffffffffffffffffffffffff191661494a83886148cd565b7dffffffffffffffffffffffffffffffffffffffffffffffffffffffffffff1916145b90506000600261497e83151561489b565b6149889190616b65565b905060008082896149999190616808565b90505b878110156149fb5760006149b86149b387846148cd565b614a84565b9050600f8160ff1611156149d85760008097509750505050505050614a08565b6010836149e59190616b65565b92508060ff16830192505080600101905061499c565b5060018195509550505050505b935093915050565b60606000614a1d83614b15565b90506000602067ffffffffffffffff811115614a3c57614a3b614e05565b5b6040519080825280601f01601f191660200182016040528015614a6e5781602001600182028036833780820191505090505b5090508181528360208201528092505050919050565b6000808260f81c9050602f8160ff16118015614aa35750603a8160ff16105b15614ab357603081039050614b0b565b60608160ff16118015614ac9575060678160ff16105b15614ad957605781039050614b0a565b60408160ff16118015614aef575060478160ff16105b15614aff57603781039050614b09565b60ff915050614b10565b5b5b809150505b919050565b60008060ff8360001c169050601f811115614b5c576040517fb3512b0c00000000000000000000000000000000000000000000000000000000815260040160405180910390fd5b80915050919050565b6000604051905090565b600080fd5b600080fd5b60007fffffffff0000000000000000000000000000000000000000000000000000000082169050919050565b614bae81614b79565b8114614bb957600080fd5b50565b600081359050614bcb81614ba5565b92915050565b600060208284031215614be757614be6614b6f565b5b6000614bf584828501614bbc565b91505092915050565b60008115159050919050565b614c1381614bfe565b82525050565b6000602082019050614c2e6000830184614c0a565b92915050565b6000819050919050565b614c4781614c34565b82525050565b6000602082019050614c626000830184614c3e565b92915050565b614c7181614c34565b8114614c7c57600080fd5b50565b600081359050614c8e81614c68565b92915050565b600060208284031215614caa57614ca9614b6f565b5b6000614cb884828501614c7f565b91505092915050565b600081519050919050565b600082825260208201905092915050565b60005b83811015614cfb578082015181840152602081019050614ce0565b60008484015250505050565b6000601f19601f8301169050919050565b6000614d2382614cc1565b614d2d8185614ccc565b9350614d3d818560208601614cdd565b614d4681614d07565b840191505092915050565b60006020820190508181036000830152614d6b8184614d18565b905092915050565b600073ffffffffffffffffffffffffffffffffffffffff82169050919050565b6000614d9e82614d73565b9050919050565b614dae81614d93565b82525050565b6000602082019050614dc96000830184614da5565b92915050565b614dd881614d93565b8114614de357600080fd5b50565b600081359050614df581614dcf565b92915050565b600080fd5b600080fd5b7f4e487b7100000000000000000000000000000000000000000000000000000000600052604160045260246000fd5b614e3d82614d07565b810181811067ffffffffffffffff82111715614e5c57614e5b614e05565b5b80604052505050565b6000614e6f614b65565b9050614e7b8282614e34565b919050565b600067ffffffffffffffff821115614e9b57614e9a614e05565b5b614ea482614d07565b9050602081019050919050565b82818337600083830152505050565b6000614ed3614ece84614e80565b614e65565b905082815260208101848484011115614eef57614eee614e00565b5b614efa848285614eb1565b509392505050565b600082601f830112614f1757614f16614dfb565b5b8135614f27848260208601614ec0565b91505092915050565b60008060008060808587031215614f4a57614f49614b6f565b5b6000614f5887828801614de6565b9450506020614f6987828801614de6565b9350506040614f7a87828801614c7f565b925050606085013567ffffffffffffffff811115614f9b57614f9a614b74565b5b614fa787828801614f02565b91505092959194509250565b614fbc81614b79565b82525050565b6000602082019050614fd76000830184614fb3565b92915050565b600067ffffffffffffffff821115614ff857614ff7614e05565b5b602082029050602081019050919050565b600080fd5b600061502161501c84614fdd565b614e65565b9050808382526020820190506020840283018581111561504457615043615009565b5b835b8181101561506d57806150598882614de6565b845260208401935050602081019050615046565b5050509392505050565b600082601f83011261508c5761508b614dfb565b5b813561509c84826020860161500e565b91505092915050565b600067ffffffffffffffff8211156150c0576150bf614e05565b5b602082029050602081019050919050565b60006150e46150df846150a5565b614e65565b9050808382526020820190506020840283018581111561510757615106615009565b5b835b81811015615130578061511c8882614c7f565b845260208401935050602081019050615109565b5050509392505050565b600082601f83011261514f5761514e614dfb565b5b813561515f8482602086016150d1565b91505092915050565b600067ffffffffffffffff82111561518357615182614e05565b5b602082029050602081019050919050565b60006151a76151a284615168565b614e65565b905080838252602082019050602084028301858111156151ca576151c9615009565b5b835b8181101561521157803567ffffffffffffffff8111156151ef576151ee614dfb565b5b8086016151fc8982614f02565b855260208501945050506020810190506151cc565b5050509392505050565b600082601f8301126152305761522f614dfb565b5b8135615240848260208601615194565b91505092915050565b6000819050919050565b61525c81615249565b811461526757600080fd5b50565b60008135905061527981615253565b92915050565b6000806000806080858703121561529957615298614b6f565b5b600085013567ffffffffffffffff8111156152b7576152b6614b74565b5b6152c387828801615077565b945050602085013567ffffffffffffffff8111156152e4576152e3614b74565b5b6152f08782880161513a565b935050604085013567ffffffffffffffff81111561531157615310614b74565b5b61531d8782880161521b565b925050606061532e8782880161526a565b91505092959194509250565b61534381615249565b82525050565b600060208201905061535e600083018461533a565b92915050565b7f4e487b7100000000000000000000000000000000000000000000000000000000600052602160045260246000fd5b600881106153a4576153a3615364565b5b50565b60008190506153b582615393565b919050565b60006153c5826153a7565b9050919050565b6153d5816153ba565b82525050565b60006020820190506153f060008301846153cc565b92915050565b6000806040838503121561540d5761540c614b6f565b5b600061541b85828601614c7f565b925050602061542c85828601614de6565b9150509250929050565b600060608201905061544b6000830186614c3e565b6154586020830185614c3e565b6154656040830184614c3e565b949350505050565b600060ff82169050919050565b6154838161546d565b811461548e57600080fd5b50565b6000813590506154a08161547a565b92915050565b600080604083850312156154bd576154bc614b6f565b5b60006154cb85828601614c7f565b92505060206154dc85828601615491565b9150509250929050565b600080fd5b60008083601f84011261550157615500614dfb565b5b8235905067ffffffffffffffff81111561551e5761551d6154e6565b5b60208301915083600182028301111561553a57615539615009565b5b9250929050565b600080600080600080600060c0888a0312156155605761555f614b6f565b5b600061556e8a828b01614c7f565b975050602061557f8a828b01615491565b96505060406155908a828b01614de6565b955050606088013567ffffffffffffffff8111156155b1576155b0614b74565b5b6155bd8a828b016154eb565b9450945050608088013567ffffffffffffffff8111156155e0576155df614b74565b5b6155ec8a828b01614f02565b92505060a088013567ffffffffffffffff81111561560d5761560c614b74565b5b6156198a828b01614f02565b91505092959891949750929550565b60008060008060006080868803121561564457615643614b6f565b5b600061565288828901614c7f565b955050602061566388828901615491565b945050604086013567ffffffffffffffff81111561568457615683614b74565b5b615690888289016154eb565b9350935050606086013567ffffffffffffffff8111156156b3576156b2614b74565b5b6156bf88828901614f02565b9150509295509295909350565b600065ffffffffffff82169050919050565b6156e7816156cc565b81146156f257600080fd5b50565b600081359050615704816156de565b92915050565b6000602082840312156157205761571f614b6f565b5b600061572e848285016156f5565b91505092915050565b6000806000806060858703121561575157615750614b6f565b5b600061575f87828801614c7f565b945050602061577087828801615491565b935050604085013567ffffffffffffffff81111561579157615790614b74565b5b61579d878288016154eb565b925092505092959194509250565b600067ffffffffffffffff8211156157c6576157c5614e05565b5b6157cf82614d07565b9050602081019050919050565b60006157ef6157ea846157ab565b614e65565b90508281526020810184848401111561580b5761580a614e00565b5b615816848285614eb1565b509392505050565b600082601f83011261583357615832614dfb565b5b81356158438482602086016157dc565b91505092915050565b6000806000806080858703121561586657615865614b6f565b5b600085013567ffffffffffffffff81111561588457615883614b74565b5b61589087828801615077565b945050602085013567ffffffffffffffff8111156158b1576158b0614b74565b5b6158bd8782880161513a565b935050604085013567ffffffffffffffff8111156158de576158dd614b74565b5b6158ea8782880161521b565b925050606085013567ffffffffffffffff81111561590b5761590a614b74565b5b6159178782880161581e565b91505092959194509250565b60006020828403121561593957615938614b6f565b5b600061594784828501614de6565b91505092915050565b60007fff0000000000000000000000000000000000000000000000000000000000000082169050919050565b61598581615950565b82525050565b600081519050919050565b600082825260208201905092915050565b6000819050602082019050919050565b6159c081614c34565b82525050565b60006159d283836159b7565b60208301905092915050565b6000602082019050919050565b60006159f68261598b565b615a008185615996565b9350615a0b836159a7565b8060005b83811015615a3c578151615a2388826159c6565b9750615a2e836159de565b925050600181019050615a0f565b5085935050505092915050565b600060e082019050615a5e600083018a61597c565b8181036020830152615a708189614d18565b90508181036040830152615a848188614d18565b9050615a936060830187614c3e565b615aa06080830186614da5565b615aad60a083018561533a565b81810360c0830152615abf81846159eb565b905098975050505050505050565b60008060008060808587031215615ae757615ae6614b6f565b5b6000615af587828801614c7f565b9450506020615b0687828801615491565b9350506040615b1787828801614de6565b925050606085013567ffffffffffffffff811115615b3857615b37614b74565b5b615b4487828801614f02565b91505092959194509250565b615b59816156cc565b82525050565b6000602082019050615b746000830184615b50565b92915050565b600080600060608486031215615b9357615b92614b6f565b5b6000615ba186828701614de6565b9350506020615bb286828701614c7f565b925050604084013567ffffffffffffffff811115615bd357615bd2614b74565b5b615bdf86828701614f02565b9150509250925092565b6000615bf482614d73565b9050919050565b6000615c0682615be9565b9050919050565b615c1681615bfb565b8114615c2157600080fd5b50565b600081359050615c3381615c0d565b92915050565b600060208284031215615c4f57615c4e614b6f565b5b6000615c5d84828501615c24565b91505092915050565b600080600080600060a08688031215615c8257615c81614b6f565b5b6000615c9088828901614de6565b9550506020615ca188828901614de6565b945050604086013567ffffffffffffffff811115615cc257615cc1614b74565b5b615cce8882890161513a565b935050606086013567ffffffffffffffff811115615cef57615cee614b74565b5b615cfb8882890161513a565b925050608086013567ffffffffffffffff811115615d1c57615d1b614b74565b5b615d2888828901614f02565b9150509295509295909350565b60008083601f840112615d4b57615d4a614dfb565b5b8235905067ffffffffffffffff811115615d6857615d676154e6565b5b602083019150836001820283011115615d8457615d83615009565b5b9250929050565b60008060008060608587031215615da557615da4614b6f565b5b6000615db387828801614de6565b9450506020615dc487828801614c7f565b935050604085013567ffffffffffffffff811115615de557615de4614b74565b5b615df187828801615d35565b925092505092959194509250565b600063ffffffff82169050919050565b615e1881615dff565b8114615e2357600080fd5b50565b600081359050615e3581615e0f565b92915050565b600060208284031215615e5157615e50614b6f565b5b6000615e5f84828501615e26565b91505092915050565b60008060408385031215615e7f57615e7e614b6f565b5b6000615e8d85828601614de6565b9250506020615e9e85828601614c7f565b9150509250929050565b600080600080600060a08688031215615ec457615ec3614b6f565b5b6000615ed288828901614de6565b9550506020615ee388828901614de6565b9450506040615ef488828901614c7f565b9350506060615f0588828901614c7f565b925050608086013567ffffffffffffffff811115615f2657615f25614b74565b5b615f3288828901614f02565b9150509295509295909350565b6000819050919050565b6000615f64615f5f615f5a84614d73565b615f3f565b614d73565b9050919050565b6000615f7682615f49565b9050919050565b6000615f8882615f6b565b9050919050565b615f9881615f7d565b82525050565b6000602082019050615fb36000830184615f8f565b92915050565b7f4e487b7100000000000000000000000000000000000000000000000000000000600052602260045260246000fd5b6000600282049050600182168061600057607f821691505b60208210810361601357616012615fb9565b5b50919050565b600061603461602f61602a846156cc565b615f3f565b614c34565b9050919050565b61604481616019565b82525050565b600060408201905061605f6000830185614c3e565b61606c602083018461603b565b9392505050565b7f4e487b7100000000000000000000000000000000000000000000000000000000600052603260045260246000fd5b60006160b56160b0846157ab565b614e65565b9050828152602081018484840111156160d1576160d0614e00565b5b6160dc848285614cdd565b509392505050565b600082601f8301126160f9576160f8614dfb565b5b81516161098482602086016160a2565b91505092915050565b60006020828403121561612857616127614b6f565b5b600082015167ffffffffffffffff81111561614657616145614b74565b5b616152848285016160e4565b91505092915050565b600081905092915050565b6000616172838561615b565b935061617f838584614eb1565b82840190509392505050565b6000616198828486616166565b91508190509392505050565b6161ad8161546d565b82525050565b600060e0820190506161c8600083018a61533a565b6161d56020830189614c3e565b6161e260408301886161a4565b6161ef6060830187614da5565b6161fc6080830186614c3e565b61620960a083018561533a565b61621660c083018461533a565b98975050505050505050565b7f4e487b7100000000000000000000000000000000000000000000000000000000600052601160045260246000fd5b600061625c82614c34565b915061626783614c34565b925082820390508181111561627f5761627e616222565b5b92915050565b6000616290826156cc565b915061629b836156cc565b9250828203905065ffffffffffff8111156162b9576162b8616222565b5b92915050565b60006060820190506162d46000830186614da5565b6162e16020830185614c3e565b6162ee6040830184614c3e565b949350505050565b600060a08201905061630b600083018861533a565b6163186020830187614c3e565b61632560408301866161a4565b6163326060830185614da5565b61633f6080830184614c3e565b9695505050505050565b600081519050616358816156de565b92915050565b60006020828403121561637457616373614b6f565b5b600061638284828501616349565b91505092915050565b6000616396826156cc565b91506163a1836156cc565b9250828201905065ffffffffffff8111156163bf576163be616222565b5b92915050565b600081519050919050565b600082825260208201905092915050565b6000819050602082019050919050565b6163fa81614d93565b82525050565b600061640c83836163f1565b60208301905092915050565b6000602082019050919050565b6000616430826163c5565b61643a81856163d0565b9350616445836163e1565b8060005b8381101561647657815161645d8882616400565b975061646883616418565b925050600181019050616449565b5085935050505092915050565b600081519050919050565b600082825260208201905092915050565b6000819050602082019050919050565b600081519050919050565b600082825260208201905092915050565b60006164d6826164af565b6164e081856164ba565b93506164f0818560208601614cdd565b6164f981614d07565b840191505092915050565b600061651083836164cb565b905092915050565b6000602082019050919050565b600061653082616483565b61653a818561648e565b93508360208202850161654c8561649f565b8060005b8581101561658857848403895281516165698582616504565b945061657483616518565b925060208a01995050600181019050616550565b50829750879550505050505092915050565b600060808201905081810360008301526165b48187616425565b905081810360208301526165c881866159eb565b905081810360408301526165dc8185616525565b90506165eb606083018461533a565b95945050505050565b60006040820190506166096000830185614c3e565b6166166020830184614c3e565b9392505050565b60006060820190506166326000830186614c3e565b61663f60208301856153cc565b61664c604083018461533a565b949350505050565b61665d81614bfe565b811461666857600080fd5b50565b60008151905061667a81616654565b92915050565b60006020828403121561669657616695614b6f565b5b60006166a48482850161666b565b91505092915050565b60006080820190506166c26000830187614c3e565b6166cf60208301866161a4565b6166dc6040830185614c3e565b81810360608301526166ee8184614d18565b905095945050505050565b600082825260208201905092915050565b6000616715826164af565b61671f81856166f9565b935061672f818560208601614cdd565b61673881614d07565b840191505092915050565b600060a0820190506167586000830188614c3e565b61676560208301876161a4565b6167726040830186614c3e565b81810360608301526167848185614d18565b90508181036080830152616798818461670a565b90509695505050505050565b6000819050919050565b60006167c96167c46167bf846167a4565b615f3f565b61546d565b9050919050565b6167d9816167ae565b82525050565b60006040820190506167f460008301856167d0565b6168016020830184614c3e565b9392505050565b600061681382614c34565b915061681e83614c34565b925082820190508082111561683657616835616222565b5b92915050565b6000604082019050616851600083018561603b565b61685e602083018461603b565b9392505050565b600081519050919050565b600082825260208201905092915050565b6000819050602082019050919050565b600082825260208201905092915050565b60006168ad82614cc1565b6168b78185616891565b93506168c7818560208601614cdd565b6168d081614d07565b840191505092915050565b60006168e783836168a2565b905092915050565b6000602082019050919050565b600061690782616865565b6169118185616870565b93508360208202850161692385616881565b8060005b8581101561695f578484038952815161694085826168db565b945061694b836168ef565b925060208a01995050600181019050616927565b50829750879550505050505092915050565b600061012082019050616987600083018c614c3e565b616994602083018b614da5565b81810360408301526169a6818a616425565b905081810360608301526169ba81896159eb565b905081810360808301526169ce81886168fc565b905081810360a08301526169e28187616525565b90506169f160c0830186614c3e565b6169fe60e0830185614c3e565b818103610100830152616a118184614d18565b90509a9950505050505050505050565b6000604082019050616a366000830185614da5565b616a436020830184614c3e565b9392505050565b600081519050616a5981614c68565b92915050565b600060208284031215616a7557616a74614b6f565b5b6000616a8384828501616a4a565b91505092915050565b6000604082019050616aa16000830185614da5565b616aae6020830184614da5565b9392505050565b6000819050919050565b6000616ada616ad5616ad084616ab5565b615f3f565b614c34565b9050919050565b616aea81616abf565b82525050565b6000602082019050616b056000830184616ae1565b92915050565b6000616b26616b21616b1c84615dff565b615f3f565b614c34565b9050919050565b616b3681616b0b565b82525050565b6000604082019050616b516000830185616b2d565b616b5e6020830184616b2d565b9392505050565b6000616b7082614c34565b9150616b7b83614c34565b9250828202616b8981614c34565b91508282048414831517616ba057616b9f616222565b5b5092915050565b7f4e487b7100000000000000000000000000000000000000000000000000000000600052601260045260246000fd5b6000616be182614c34565b9150616bec83614c34565b925082616bfc57616bfb616ba7565b5b828204905092915050565b6000819050919050565b6000616c2c616c27616c2284616c07565b615f3f565b61546d565b9050919050565b616c3c81616c11565b82525050565b6000604082019050616c576000830185616c33565b616c646020830184614c3e565b9392505050565b60008160001b9050919050565b6000616c93616c8e616c8984616ab5565b616c6b565b615249565b9050919050565b616ca381616c78565b82525050565b600060a0820190508181036000830152616cc38188616425565b90508181036020830152616cd781876159eb565b90508181036040830152616ceb8186616525565b9050616cfa6060830185616c9a565b616d07608083018461533a565b9695505050505050565b600081519050616d2081615253565b92915050565b600060208284031215616d3c57616d3b614b6f565b5b6000616d4a84828501616d11565b91505092915050565b600060c0820190508181036000830152616d6d8189616425565b90508181036020830152616d8181886159eb565b90508181036040830152616d958187616525565b9050616da46060830186616c9a565b616db1608083018561533a565b616dbe60a0830184614c3e565b979650505050505050565b6000604082019050616dde600083018561533a565b8181036020830152616df0818461670a565b90509392505050565b6000616e04826164af565b616e0e818561615b565b9350616e1e818560208601614cdd565b80840191505092915050565b6000616e368284616df9565b915081905092915050565b6000819050919050565b6000616e66616e61616e5c84616e41565b615f3f565b61546d565b9050919050565b616e7681616e4b565b82525050565b6000604082019050616e916000830185616e6d565b616e9e6020830184614c3e565b9392505050565b6000616eb08261546d565b9150616ebb8361546d565b9250828201905060ff811115616ed457616ed3616222565b5b92915050565b60008160011c9050919050565b6000808291508390505b6001851115616f3157808604811115616f0d57616f0c616222565b5b6001851615616f1c5780820291505b8081029050616f2a85616eda565b9450616ef1565b94509492505050565b600082616f4a5760019050617006565b81616f585760009050617006565b8160018114616f6e5760028114616f7857616fa7565b6001915050617006565b60ff841115616f8a57616f89616222565b5b8360020a915084821115616fa157616fa0616222565b5b50617006565b5060208310610133831016604e8410600b8410161715616fdc5782820a905083811115616fd757616fd6616222565b5b617006565b616fe98484846001616ee7565b9250905081840481111561700057616fff616222565b5b81810290505b9392505050565b600061701882614c34565b91506170238361546d565b92506170507fffffffffffffffffffffffffffffffffffffffffffffffffffffffffffffffff8484616f3a565b905092915050565b600060a08201905061706d600083018861533a565b61707a602083018761533a565b617087604083018661533a565b6170946060830185614c3e565b6170a16080830184614da5565b9695505050505050565b60006080820190506170c0600083018761533a565b6170cd60208301866161a4565b6170da604083018561533a565b6170e7606083018461533a565b9594505050505056fea2646970667358221220cb624c6b7793eef72221c9cd8a40a3b66245b0dc8a3612c0de059cbf054acac864736f6c634300081c0033",
  "devdoc": {
    "errors": {
      "CheckpointUnorderedInsertion()": [
        {
          "details": "A value was attempted to be inserted on a past checkpoint."
        }
      ],
      "FailedCall()": [
        {
          "details": "A call to an address target failed. The target may have reverted."
        }
      ],
      "GovernorAlreadyCastVote(address)": [
        {
          "details": "The vote was already cast."
        }
      ],
      "GovernorAlreadyQueuedProposal(uint256)": [
        {
          "details": "The proposal has already been queued."
        }
      ],
      "GovernorDisabledDeposit()": [
        {
          "details": "Token deposits are disabled in this contract."
        }
      ],
      "GovernorInsufficientProposerVotes(address,uint256,uint256)": [
        {
          "details": "The `proposer` does not have the required votes to create a proposal."
        }
      ],
      "GovernorInvalidProposalLength(uint256,uint256,uint256)": [
        {
          "details": "Empty proposal or a mismatch between the parameters length for a proposal call."
        }
      ],
      "GovernorInvalidQuorumFraction(uint256,uint256)": [
        {
          "details": "The quorum set is not a valid fraction."
        }
      ],
      "GovernorInvalidSignature(address)": [
        {
          "details": "The provided signature is not valid for the expected `voter`. If the `voter` is a contract, the signature is not valid using {IERC1271-isValidSignature}."
        }
      ],
      "GovernorInvalidVoteParams()": [
        {
          "details": "The provided params buffer is not supported by the counting module."
        }
      ],
      "GovernorInvalidVoteType()": [
        {
          "details": "The vote type used is not valid for the corresponding counting module."
        }
      ],
      "GovernorInvalidVotingPeriod(uint256)": [
        {
          "details": "The voting period set is not a valid period."
        }
      ],
      "GovernorNonexistentProposal(uint256)": [
        {
          "details": "The `proposalId` doesn't exist."
        }
      ],
      "GovernorNotQueuedProposal(uint256)": [
        {
          "details": "The proposal hasn't been queued yet."
        }
      ],
      "GovernorOnlyExecutor(address)": [
        {
          "details": "The `account` is not the governance executor."
        }
      ],
      "GovernorOnlyProposer(address)": [
        {
          "details": "The `account` is not a proposer."
        }
      ],
      "GovernorQueueNotImplemented()": [
        {
          "details": "Queue operation is not implemented for this governor. Execute should be called directly."
        }
      ],
      "GovernorRestrictedProposer(address)": [
        {
          "details": "The `proposer` is not allowed to create a proposal."
        }
      ],
      "GovernorUnexpectedProposalState(uint256,uint8,bytes32)": [
        {
          "details": "The current state of a proposal is not the required for performing an operation. The `expectedStates` is a bitmap with the bits enabled for each ProposalState enum position counting from right to left. NOTE: If `expectedState` is `bytes32(0)`, the proposal is expected to not be in any state (i.e. not exist). This is the case when a proposal that is expected to be unset is already initiated (the proposal is duplicated). See {Governor-_encodeStateBitmap}."
        }
      ],
      "InvalidAccountNonce(address,uint256)": [
        {
          "details": "The nonce used for an `account` is not the expected current nonce."
        }
      ],
      "SafeCastOverflowedUintDowncast(uint8,uint256)": [
        {
          "details": "Value doesn't fit in an uint of `bits` size."
        }
      ]
    },
    "events": {
      "EIP712DomainChanged()": {
        "details": "MAY be emitted to signal that the domain could have changed."
      },
      "ProposalCanceled(uint256)": {
        "details": "Emitted when a proposal is canceled."
      },
      "ProposalCreated(uint256,address,address[],uint256[],string[],bytes[],uint256,uint256,string)": {
        "details": "Emitted when a proposal is created."
      },
      "ProposalExecuted(uint256)": {
        "details": "Emitted when a proposal is executed."
      },
      "ProposalQueued(uint256,uint256)": {
        "details": "Emitted when a proposal is queued."
      },
      "TimelockChange(address,address)": {
        "details": "Emitted when the timelock controller used for proposal execution is modified."
      },
      "VoteCast(address,uint256,uint8,uint256,string)": {
        "details": "Emitted when a vote is cast without params. Note: `support` values should be seen as buckets. Their interpretation depends on the voting module used."
      },
      "VoteCastWithParams(address,uint256,uint8,uint256,string,bytes)": {
        "details": "Emitted when a vote is cast with params. Note: `support` values should be seen as buckets. Their interpretation depends on the voting module used. `params` are additional encoded parameters. Their interpretation  also depends on the voting module used."
      }
    },
    "kind": "dev",
    "methods": {
      "CLOCK_MODE()": {
        "details": "Machine-readable description of the clock as specified in ERC-6372."
      },
      "COUNTING_MODE()": {
        "details": "See {IGovernor-COUNTING_MODE}."
      },
      "cancel(address[],uint256[],bytes[],bytes32)": {
        "details": "See {IGovernor-cancel}."
      },
      "castVote(uint256,uint8)": {
        "details": "See {IGovernor-castVote}."
      },
      "castVoteBySig(uint256,uint8,address,bytes)": {
        "details": "See {IGovernor-castVoteBySig}."
      },
      "castVoteWithReason(uint256,uint8,string)": {
        "details": "See {IGovernor-castVoteWithReason}."
      },
      "castVoteWithReasonAndParams(uint256,uint8,string,bytes)": {
        "details": "See {IGovernor-castVoteWithReasonAndParams}."
      },
      "castVoteWithReasonAndParamsBySig(uint256,uint8,address,string,bytes,bytes)": {
        "details": "See {IGovernor-castVoteWithReasonAndParamsBySig}."
      },
      "clock()": {
        "details": "Clock (as specified in ERC-6372) is set to match the token's clock. Fallback to block numbers if the token does not implement ERC-6372."
      },
      "eip712Domain()": {
        "details": "See {IERC-5267}."
      },
      "execute(address[],uint256[],bytes[],bytes32)": {
        "details": "See {IGovernor-execute}."
      },
      "getVotes(address,uint256)": {
        "details": "See {IGovernor-getVotes}."
      },
      "getVotesWithParams(address,uint256,bytes)": {
        "details": "See {IGovernor-getVotesWithParams}."
      },
      "hasVoted(uint256,address)": {
        "details": "See {IGovernor-hasVoted}."
      },
      "hashProposal(address[],uint256[],bytes[],bytes32)": {
        "details": "See {IGovernor-hashProposal}. The proposal id is produced by hashing the ABI encoded `targets` array, the `values` array, the `calldatas` array and the descriptionHash (bytes32 which itself is the keccak256 hash of the description string). This proposal id can be produced from the proposal data which is part of the {ProposalCreated} event. It can even be computed in advance, before the proposal is submitted. Note that the chainId and the governor address are not part of the proposal id computation. Consequently, the same proposal (with same operation and same description) will have the same id if submitted on multiple governors across multiple networks. This also means that in order to execute the same operation twice (on the same governor) the proposer will have to change the description in order to avoid proposal id conflicts."
      },
      "name()": {
        "details": "See {IGovernor-name}."
      },
      "nonces(address)": {
        "details": "Returns the next unused nonce for an address."
      },
      "onERC1155BatchReceived(address,address,uint256[],uint256[],bytes)": {
        "details": "See {IERC1155Receiver-onERC1155BatchReceived}. Receiving tokens is disabled if the governance executor is other than the governor itself (eg. when using with a timelock)."
      },
      "onERC1155Received(address,address,uint256,uint256,bytes)": {
        "details": "See {IERC1155Receiver-onERC1155Received}. Receiving tokens is disabled if the governance executor is other than the governor itself (eg. when using with a timelock)."
      },
      "onERC721Received(address,address,uint256,bytes)": {
        "details": "See {IERC721Receiver-onERC721Received}. Receiving tokens is disabled if the governance executor is other than the governor itself (eg. when using with a timelock)."
      },
      "proposalDeadline(uint256)": {
        "details": "See {IGovernor-proposalDeadline}."
      },
      "proposalEta(uint256)": {
        "details": "See {IGovernor-proposalEta}."
      },
      "proposalProposer(uint256)": {
        "details": "See {IGovernor-proposalProposer}."
      },
      "proposalSnapshot(uint256)": {
        "details": "See {IGovernor-proposalSnapshot}."
      },
      "proposalVotes(uint256)": {
        "details": "Accessor to the internal vote counts."
      },
      "propose(address[],uint256[],bytes[],string)": {
        "details": "See {IGovernor-propose}. This function has opt-in frontrunning protection, described in {_isValidDescriptionForProposer}."
      },
      "queue(address[],uint256[],bytes[],bytes32)": {
        "details": "See {IGovernor-queue}."
      },
      "quorumDenominator()": {
        "details": "Returns the quorum denominator. Defaults to 100, but may be overridden."
      },
      "quorumNumerator()": {
        "details": "Returns the current quorum numerator. See {quorumDenominator}."
      },
      "quorumNumerator(uint256)": {
        "details": "Returns the quorum numerator at a specific timepoint. See {quorumDenominator}."
      },
      "relay(address,uint256,bytes)": {
        "details": "Relays a transaction or function call to an arbitrary target. In cases where the governance executor is some contract other than the governor itself, like when using a timelock, this function can be invoked in a governance proposal to recover tokens or Ether that was sent to the governor contract by mistake. Note that if the executor is simply the governor itself, use of `relay` is redundant."
      },
      "setProposalThreshold(uint256)": {
        "details": "Update the proposal threshold. This operation can only be performed through a governance proposal. Emits a {ProposalThresholdSet} event."
      },
      "setVotingDelay(uint48)": {
        "details": "Update the voting delay. This operation can only be performed through a governance proposal. Emits a {VotingDelaySet} event."
      },
      "setVotingPeriod(uint32)": {
        "details": "Update the voting period. This operation can only be performed through a governance proposal. Emits a {VotingPeriodSet} event."
      },
      "supportsInterface(bytes4)": {
        "details": "See {IERC165-supportsInterface}."
      },
      "timelock()": {
        "details": "Public accessor to check the address of the timelock"
      },
      "token()": {
        "details": "The token that voting power is sourced from."
      },
      "updateQuorumNumerator(uint256)": {
        "details": "Changes the quorum numerator. Emits a {QuorumNumeratorUpdated} event. Requirements: - Must be called through a governance proposal. - New numerator must be smaller or equal to the denominator."
      },
      "updateTimelock(address)": {
        "details": "Public endpoint to update the underlying timelock instance. Restricted to the timelock itself, so updates must be proposed, scheduled, and executed through governance proposals. CAUTION: It is not recommended to change the timelock while there are other queued governance proposals."
      },
      "version()": {
        "details": "See {IGovernor-version}."
      }
    },
    "version": 1
  },
  "userdoc": {
    "kind": "user",
    "methods": {},
    "version": 1
  },
  "storageLayout": {
    "storage": [
      {
        "astId": 9523,
        "contract": "contracts/governance_standard/GovernorContract.sol:GovernorContract",
        "label": "_nameFallback",
        "offset": 0,
        "slot": "0",
        "type": "t_string_storage"
      },
      {
        "astId": 9525,
        "contract": "contracts/governance_standard/GovernorContract.sol:GovernorContract",
        "label": "_versionFallback",
        "offset": 0,
        "slot": "1",
        "type": "t_string_storage"
      },
      {
        "astId": 7491,
        "contract": "contracts/governance_standard/GovernorContract.sol:GovernorContract",
        "label": "_nonces",
        "offset": 0,
        "slot": "2",
        "type": "t_mapping(t_address,t_uint256)"
      },
      {
        "astId": 618,
        "contract": "contracts/governance_standard/GovernorContract.sol:GovernorContract",
        "label": "_name",
        "offset": 0,
        "slot": "3",
        "type": "t_string_storage"
      },
      {
        "astId": 623,
        "contract": "contracts/governance_standard/GovernorContract.sol:GovernorContract",
        "label": "_proposals",
        "offset": 0,
        "slot": "4",
        "type": "t_mapping(t_uint256,t_struct(ProposalCore)596_storage)"
      },
      {
        "astId": 626,
        "contract": "contracts/governance_standard/GovernorContract.sol:GovernorContract",
        "label": "_governanceCall",
        "offset": 0,
        "slot": "5",
        "type": "t_struct(Bytes32Deque)15042_storage"
      },
      {
        "astId": 3997,
        "contract": "contracts/governance_standard/GovernorContract.sol:GovernorContract",
        "label": "_proposalThreshold",
        "offset": 0,
        "slot": "7",
        "type": "t_uint256"
      },
      {
        "astId": 3999,
        "contract": "contracts/governance_standard/GovernorContract.sol:GovernorContract",
        "label": "_votingDelay",
        "offset": 0,
        "slot": "8",
        "type": "t_uint48"
      },
      {
        "astId": 4001,
        "contract": "contracts/governance_standard/GovernorContract.sol:GovernorContract",
        "label": "_votingPeriod",
        "offset": 6,
        "slot": "8",
        "type": "t_uint32"
      },
      {
        "astId": 3784,
        "contract": "contracts/governance_standard/GovernorContract.sol:GovernorContract",
        "label": "_proposalVotes",
        "offset": 0,
        "slot": "9",
        "type": "t_mapping(t_uint256,t_struct(ProposalVote)3779_storage)"
      },
      {
        "astId": 4648,
        "contract": "contracts/governance_standard/GovernorContract.sol:GovernorContract",
        "label": "_quorumNumeratorHistory",
        "offset": 0,
        "slot": "10",
        "type": "t_struct(Trace208)13983_storage"
      },
      {
        "astId": 4186,
        "contract": "contracts/governance_standard/GovernorContract.sol:GovernorContract",
        "label": "_timelock",
        "offset": 0,
        "slot": "11",
        "type": "t_contract(TimelockController)3756"
      },
      {
        "astId": 4190,
        "contract": "contracts/governance_standard/GovernorContract.sol:GovernorContract",
        "label": "_timelockIds",
        "offset": 0,
        "slot": "12",
        "type": "t_mapping(t_uint256,t_bytes32)"
      }
    ],
    "types": {
      "t_address": {
        "encoding": "inplace",
        "label": "address",
        "numberOfBytes": "20"
      },
      "t_array(t_struct(Checkpoint208)13988_storage)dyn_storage": {
        "base": "t_struct(Checkpoint208)13988_storage",
        "encoding": "dynamic_array",
        "label": "struct Checkpoints.Checkpoint208[]",
        "numberOfBytes": "32"
      },
      "t_bool": {
        "encoding": "inplace",
        "label": "bool",
        "numberOfBytes": "1"
      },
      "t_bytes32": {
        "encoding": "inplace",
        "label": "bytes32",
        "numberOfBytes": "32"
      },
      "t_contract(TimelockController)3756": {
        "encoding": "inplace",
        "label": "contract TimelockController",
        "numberOfBytes": "20"
      },
      "t_mapping(t_address,t_bool)": {
        "encoding": "mapping",
        "key": "t_address",
        "label": "mapping(address => bool)",
        "numberOfBytes": "32",
        "value": "t_bool"
      },
      "t_mapping(t_address,t_uint256)": {
        "encoding": "mapping",
        "key": "t_address",
        "label": "mapping(address => uint256)",
        "numberOfBytes": "32",
        "value": "t_uint256"
      },
      "t_mapping(t_uint128,t_bytes32)": {
        "encoding": "mapping",
        "key": "t_uint128",
        "label": "mapping(uint128 => bytes32)",
        "numberOfBytes": "32",
        "value": "t_bytes32"
      },
      "t_mapping(t_uint256,t_bytes32)": {
        "encoding": "mapping",
        "key": "t_uint256",
        "label": "mapping(uint256 => bytes32)",
        "numberOfBytes": "32",
        "value": "t_bytes32"
      },
      "t_mapping(t_uint256,t_struct(ProposalCore)596_storage)": {
        "encoding": "mapping",
        "key": "t_uint256",
        "label": "mapping(uint256 => struct Governor.ProposalCore)",
        "numberOfBytes": "32",
        "value": "t_struct(ProposalCore)596_storage"
      },
      "t_mapping(t_uint256,t_struct(ProposalVote)3779_storage)": {
        "encoding": "mapping",
        "key": "t_uint256",
        "label": "mapping(uint256 => struct GovernorCountingSimple.ProposalVote)",
        "numberOfBytes": "32",
        "value": "t_struct(ProposalVote)3779_storage"
      },
      "t_string_storage": {
        "encoding": "bytes",
        "label": "string",
        "numberOfBytes": "32"
      },
      "t_struct(Bytes32Deque)15042_storage": {
        "encoding": "inplace",
        "label": "struct DoubleEndedQueue.Bytes32Deque",
        "members": [
          {
            "astId": 15035,
            "contract": "contracts/governance_standard/GovernorContract.sol:GovernorContract",
            "label": "_begin",
            "offset": 0,
            "slot": "0",
            "type": "t_uint128"
          },
          {
            "astId": 15037,
            "contract": "contracts/governance_standard/GovernorContract.sol:GovernorContract",
            "label": "_end",
            "offset": 16,
            "slot": "0",
            "type": "t_uint128"
          },
          {
            "astId": 15041,
            "contract": "contracts/governance_standard/GovernorContract.sol:GovernorContract",
            "label": "_data",
            "offset": 0,
            "slot": "1",
            "type": "t_mapping(t_uint128,t_bytes32)"
          }
        ],
        "numberOfBytes": "64"
      },
      "t_struct(Checkpoint208)13988_storage": {
        "encoding": "inplace",
        "label": "struct Checkpoints.Checkpoint208",
        "members": [
          {
            "astId": 13985,
            "contract": "contracts/governance_standard/GovernorContract.sol:GovernorContract",
            "label": "_key",
            "offset": 0,
            "slot": "0",
            "type": "t_uint48"
          },
          {
            "astId": 13987,
            "contract": "contracts/governance_standard/GovernorContract.sol:GovernorContract",
            "label": "_value",
            "offset": 6,
            "slot": "0",
            "type": "t_uint208"
          }
        ],
        "numberOfBytes": "32"
      },
      "t_struct(ProposalCore)596_storage": {
        "encoding": "inplace",
        "label": "struct Governor.ProposalCore",
        "members": [
          {
            "astId": 585,
            "contract": "contracts/governance_standard/GovernorContract.sol:GovernorContract",
            "label": "proposer",
            "offset": 0,
            "slot": "0",
            "type": "t_address"
          },
          {
            "astId": 587,
            "contract": "contracts/governance_standard/GovernorContract.sol:GovernorContract",
            "label": "voteStart",
            "offset": 20,
            "slot": "0",
            "type": "t_uint48"
          },
          {
            "astId": 589,
            "contract": "contracts/governance_standard/GovernorContract.sol:GovernorContract",
            "label": "voteDuration",
            "offset": 26,
            "slot": "0",
            "type": "t_uint32"
          },
          {
            "astId": 591,
            "contract": "contracts/governance_standard/GovernorContract.sol:GovernorContract",
            "label": "executed",
            "offset": 30,
            "slot": "0",
            "type": "t_bool"
          },
          {
            "astId": 593,
            "contract": "contracts/governance_standard/GovernorContract.sol:GovernorContract",
            "label": "canceled",
            "offset": 31,
            "slot": "0",
            "type": "t_bool"
          },
          {
            "astId": 595,
            "contract": "contracts/governance_standard/GovernorContract.sol:GovernorContract",
            "label": "etaSeconds",
            "offset": 0,
            "slot": "1",
            "type": "t_uint48"
          }
        ],
        "numberOfBytes": "64"
      },
      "t_struct(ProposalVote)3779_storage": {
        "encoding": "inplace",
        "label": "struct GovernorCountingSimple.ProposalVote",
        "members": [
          {
            "astId": 3770,
            "contract": "contracts/governance_standard/GovernorContract.sol:GovernorContract",
            "label": "againstVotes",
            "offset": 0,
            "slot": "0",
            "type": "t_uint256"
          },
          {
            "astId": 3772,
            "contract": "contracts/governance_standard/GovernorContract.sol:GovernorContract",
            "label": "forVotes",
            "offset": 0,
            "slot": "1",
            "type": "t_uint256"
          },
          {
            "astId": 3774,
            "contract": "contracts/governance_standard/GovernorContract.sol:GovernorContract",
            "label": "abstainVotes",
            "offset": 0,
            "slot": "2",
            "type": "t_uint256"
          },
          {
            "astId": 3778,
            "contract": "contracts/governance_standard/GovernorContract.sol:GovernorContract",
            "label": "hasVoted",
            "offset": 0,
            "slot": "3",
            "type": "t_mapping(t_address,t_bool)"
          }
        ],
        "numberOfBytes": "128"
      },
      "t_struct(Trace208)13983_storage": {
        "encoding": "inplace",
        "label": "struct Checkpoints.Trace208",
        "members": [
          {
            "astId": 13982,
            "contract": "contracts/governance_standard/GovernorContract.sol:GovernorContract",
            "label": "_checkpoints",
            "offset": 0,
            "slot": "0",
            "type": "t_array(t_struct(Checkpoint208)13988_storage)dyn_storage"
          }
        ],
        "numberOfBytes": "32"
      },
      "t_uint128": {
        "encoding": "inplace",
        "label": "uint128",
        "numberOfBytes": "16"
      },
      "t_uint208": {
        "encoding": "inplace",
        "label": "uint208",
        "numberOfBytes": "26"
      },
      "t_uint256": {
        "encoding": "inplace",
        "label": "uint256",
        "numberOfBytes": "32"
      },
      "t_uint32": {
        "encoding": "inplace",
        "label": "uint32",
        "numberOfBytes": "4"
      },
      "t_uint48": {
        "encoding": "inplace",
        "label": "uint48",
        "numberOfBytes": "6"
      }
    }
  }
}